{
  "_format": "hh-sol-artifact-1",
  "contractName": "testCDai",
  "sourceName": "contracts/test_utils/testCDai.sol",
  "abi": [
    {
      "inputs": [
        {
          "internalType": "address payable",
          "name": "_dai",
          "type": "address"
        }
      ],
      "stateMutability": "nonpayable",
      "type": "constructor"
    },
    {
      "anonymous": false,
      "inputs": [
        {
          "indexed": true,
          "internalType": "address",
          "name": "tokenOwner",
          "type": "address"
        },
        {
          "indexed": true,
          "internalType": "address",
          "name": "spender",
          "type": "address"
        },
        {
          "indexed": false,
          "internalType": "uint256",
          "name": "tokens",
          "type": "uint256"
        }
      ],
      "name": "Approval",
      "type": "event"
    },
    {
      "anonymous": false,
      "inputs": [
        {
          "indexed": true,
          "internalType": "address",
          "name": "from",
          "type": "address"
        },
        {
          "indexed": true,
          "internalType": "address",
          "name": "to",
          "type": "address"
        },
        {
          "indexed": false,
          "internalType": "uint256",
          "name": "tokens",
          "type": "uint256"
        }
      ],
      "name": "Transfer",
      "type": "event"
    },
    {
      "inputs": [
        {
          "internalType": "address",
          "name": "owner",
          "type": "address"
        },
        {
          "internalType": "address",
          "name": "delegate",
          "type": "address"
        }
      ],
      "name": "allowance",
      "outputs": [
        {
          "internalType": "uint256",
          "name": "",
          "type": "uint256"
        }
      ],
      "stateMutability": "view",
      "type": "function"
    },
    {
      "inputs": [
        {
          "internalType": "address",
          "name": "delegate",
          "type": "address"
        },
        {
          "internalType": "uint256",
          "name": "numTokens",
          "type": "uint256"
        }
      ],
      "name": "approve",
      "outputs": [
        {
          "internalType": "bool",
          "name": "",
          "type": "bool"
        }
      ],
      "stateMutability": "nonpayable",
      "type": "function"
    },
    {
      "inputs": [
        {
          "internalType": "address",
          "name": "tokenOwner",
          "type": "address"
        }
      ],
      "name": "balanceOf",
      "outputs": [
        {
          "internalType": "uint256",
          "name": "",
          "type": "uint256"
        }
      ],
      "stateMutability": "view",
      "type": "function"
    },
    {
      "inputs": [
        {
          "internalType": "address",
          "name": "user",
          "type": "address"
        }
      ],
      "name": "balanceOfUnderlying",
      "outputs": [
        {
          "internalType": "uint256",
          "name": "",
          "type": "uint256"
        }
      ],
      "stateMutability": "view",
      "type": "function"
    },
    {
      "inputs": [
        {
          "internalType": "uint256",
          "name": "underlying_amt",
          "type": "uint256"
        }
      ],
      "name": "mint",
      "outputs": [
        {
          "internalType": "uint256",
          "name": "",
          "type": "uint256"
        }
      ],
      "stateMutability": "nonpayable",
      "type": "function"
    },
    {
      "inputs": [
        {
          "internalType": "uint256",
          "name": "amt",
          "type": "uint256"
        }
      ],
      "name": "redeemUnderlying",
      "outputs": [
        {
          "internalType": "uint256",
          "name": "",
          "type": "uint256"
        }
      ],
      "stateMutability": "nonpayable",
      "type": "function"
    },
    {
      "inputs": [
        {
          "internalType": "address",
          "name": "address_to_set",
          "type": "address"
        },
        {
          "internalType": "uint256",
          "name": "amt",
          "type": "uint256"
        }
      ],
      "name": "setBalance",
      "outputs": [],
      "stateMutability": "nonpayable",
      "type": "function"
    },
    {
      "inputs": [
        {
          "internalType": "address",
          "name": "receiver",
          "type": "address"
        },
        {
          "internalType": "uint256",
          "name": "numTokens",
          "type": "uint256"
        }
      ],
      "name": "transfer",
      "outputs": [
        {
          "internalType": "bool",
          "name": "",
          "type": "bool"
        }
      ],
      "stateMutability": "nonpayable",
      "type": "function"
    },
    {
      "inputs": [
        {
          "internalType": "address",
          "name": "owner",
          "type": "address"
        },
        {
          "internalType": "address",
          "name": "buyer",
          "type": "address"
        },
        {
          "internalType": "uint256",
          "name": "numTokens",
          "type": "uint256"
        }
      ],
      "name": "transferFrom",
      "outputs": [
        {
          "internalType": "bool",
          "name": "",
          "type": "bool"
        }
      ],
      "stateMutability": "nonpayable",
      "type": "function"
    }
  ],
  "bytecode": "0x608060405260056003553480156200001657600080fd5b50604051620015713803806200157183398181016040528101906200003c91906200009b565b80600260006101000a81548173ffffffffffffffffffffffffffffffffffffffff021916908373ffffffffffffffffffffffffffffffffffffffff1602179055505062000115565b6000815190506200009581620000fb565b92915050565b600060208284031215620000ae57600080fd5b6000620000be8482850162000084565b91505092915050565b6000620000d482620000db565b9050919050565b600073ffffffffffffffffffffffffffffffffffffffff82169050919050565b6200010681620000c7565b81146200011257600080fd5b50565b61144c80620001256000396000f3fe608060405234801561001057600080fd5b50600436106100935760003560e01c8063852a12e311610066578063852a12e314610158578063a0712d6814610188578063a9059cbb146101b8578063dd62ed3e146101e8578063e30443bc1461021857610093565b8063095ea7b31461009857806323b872dd146100c85780633af9e669146100f857806370a0823114610128575b600080fd5b6100b260048036038101906100ad9190610f22565b610234565b6040516100bf919061116f565b60405180910390f35b6100e260048036038101906100dd9190610ed3565b610326565b6040516100ef919061116f565b60405180910390f35b610112600480360381019061010d9190610e6e565b6106a1565b60405161011f91906111ea565b60405180910390f35b610142600480360381019061013d9190610e6e565b6106fd565b60405161014f91906111ea565b60405180910390f35b610172600480360381019061016d9190610f87565b610745565b60405161017f91906111ea565b60405180910390f35b6101a2600480360381019061019d9190610f87565b610980565b6040516101af91906111ea565b60405180910390f35b6101d260048036038101906101cd9190610f22565b610b27565b6040516101df919061116f565b60405180910390f35b61020260048036038101906101fd9190610e97565b610d09565b60405161020f91906111ea565b60405180910390f35b610232600480360381019061022d9190610f22565b610d90565b005b600081600160003373ffffffffffffffffffffffffffffffffffffffff1673ffffffffffffffffffffffffffffffffffffffff16815260200190815260200160002060008573ffffffffffffffffffffffffffffffffffffffff1673ffffffffffffffffffffffffffffffffffffffff168152602001908152602001600020819055508273ffffffffffffffffffffffffffffffffffffffff163373ffffffffffffffffffffffffffffffffffffffff167f8c5be1e5ebec7d5bd14f71427d1e84f3dd0314c0f7b2291e5b200ac8c7c3b9258460405161031491906111ea565b60405180910390a36001905092915050565b60008060008573ffffffffffffffffffffffffffffffffffffffff1673ffffffffffffffffffffffffffffffffffffffff1681526020019081526020016000205482111561037357600080fd5b600160008573ffffffffffffffffffffffffffffffffffffffff1673ffffffffffffffffffffffffffffffffffffffff16815260200190815260200160002060003373ffffffffffffffffffffffffffffffffffffffff1673ffffffffffffffffffffffffffffffffffffffff168152602001908152602001600020548211156103fc57600080fd5b61044d826000808773ffffffffffffffffffffffffffffffffffffffff1673ffffffffffffffffffffffffffffffffffffffff16815260200190815260200160002054610dd790919063ffffffff16565b6000808673ffffffffffffffffffffffffffffffffffffffff1673ffffffffffffffffffffffffffffffffffffffff1681526020019081526020016000208190555061051e82600160008773ffffffffffffffffffffffffffffffffffffffff1673ffffffffffffffffffffffffffffffffffffffff16815260200190815260200160002060003373ffffffffffffffffffffffffffffffffffffffff1673ffffffffffffffffffffffffffffffffffffffff16815260200190815260200160002054610dd790919063ffffffff16565b600160008673ffffffffffffffffffffffffffffffffffffffff1673ffffffffffffffffffffffffffffffffffffffff16815260200190815260200160002060003373ffffffffffffffffffffffffffffffffffffffff1673ffffffffffffffffffffffffffffffffffffffff168152602001908152602001600020819055506105ef826000808673ffffffffffffffffffffffffffffffffffffffff1673ffffffffffffffffffffffffffffffffffffffff16815260200190815260200160002054610ded90919063ffffffff16565b6000808573ffffffffffffffffffffffffffffffffffffffff1673ffffffffffffffffffffffffffffffffffffffff168152602001908152602001600020819055508273ffffffffffffffffffffffffffffffffffffffff168473ffffffffffffffffffffffffffffffffffffffff167fddf252ad1be2c89b69c2b068fc378daa952ba7f163c4a11628f55a4df523b3ef8460405161068e91906111ea565b60405180910390a3600190509392505050565b60006106f66003546000808573ffffffffffffffffffffffffffffffffffffffff1673ffffffffffffffffffffffffffffffffffffffff16815260200190815260200160002054610e0390919063ffffffff16565b9050919050565b60008060008373ffffffffffffffffffffffffffffffffffffffff1673ffffffffffffffffffffffffffffffffffffffff168152602001908152602001600020549050919050565b60008161079b6003546000803373ffffffffffffffffffffffffffffffffffffffff1673ffffffffffffffffffffffffffffffffffffffff16815260200190815260200160002054610e0390919063ffffffff16565b11156107dc576040517f08c379a00000000000000000000000000000000000000000000000000000000081526004016107d3906111aa565b60405180910390fd5b6108416107f460035484610e1990919063ffffffff16565b6000803373ffffffffffffffffffffffffffffffffffffffff1673ffffffffffffffffffffffffffffffffffffffff16815260200190815260200160002054610dd790919063ffffffff16565b6000803373ffffffffffffffffffffffffffffffffffffffff1673ffffffffffffffffffffffffffffffffffffffff168152602001908152602001600020819055506000600260009054906101000a900473ffffffffffffffffffffffffffffffffffffffff1673ffffffffffffffffffffffffffffffffffffffff1663a9059cbb33856040518363ffffffff1660e01b81526004016108e2929190611146565b602060405180830381600087803b1580156108fc57600080fd5b505af1158015610910573d6000803e3d6000fd5b505050506040513d601f19601f820116820180604052508101906109349190610f5e565b905080610976576040517f08c379a000000000000000000000000000000000000000000000000000000000815260040161096d906111ca565b60405180910390fd5b6000915050919050565b600080600260009054906101000a900473ffffffffffffffffffffffffffffffffffffffff1673ffffffffffffffffffffffffffffffffffffffff166323b872dd3330866040518463ffffffff1660e01b81526004016109e29392919061110f565b602060405180830381600087803b1580156109fc57600080fd5b505af1158015610a10573d6000803e3d6000fd5b505050506040513d601f19601f82011682018060405250810190610a349190610f5e565b905080610a76576040517f08c379a0000000000000000000000000000000000000000000000000000000008152600401610a6d9061118a565b60405180910390fd5b610adb610a8e60035485610e1990919063ffffffff16565b6000803373ffffffffffffffffffffffffffffffffffffffff1673ffffffffffffffffffffffffffffffffffffffff16815260200190815260200160002054610ded90919063ffffffff16565b6000803373ffffffffffffffffffffffffffffffffffffffff1673ffffffffffffffffffffffffffffffffffffffff168152602001908152602001600020819055506000915050919050565b60008060003373ffffffffffffffffffffffffffffffffffffffff1673ffffffffffffffffffffffffffffffffffffffff16815260200190815260200160002054821115610b7457600080fd5b610bc5826000803373ffffffffffffffffffffffffffffffffffffffff1673ffffffffffffffffffffffffffffffffffffffff16815260200190815260200160002054610dd790919063ffffffff16565b6000803373ffffffffffffffffffffffffffffffffffffffff1673ffffffffffffffffffffffffffffffffffffffff16815260200190815260200160002081905550610c58826000808673ffffffffffffffffffffffffffffffffffffffff1673ffffffffffffffffffffffffffffffffffffffff16815260200190815260200160002054610ded90919063ffffffff16565b6000808573ffffffffffffffffffffffffffffffffffffffff1673ffffffffffffffffffffffffffffffffffffffff168152602001908152602001600020819055508273ffffffffffffffffffffffffffffffffffffffff163373ffffffffffffffffffffffffffffffffffffffff167fddf252ad1be2c89b69c2b068fc378daa952ba7f163c4a11628f55a4df523b3ef84604051610cf791906111ea565b60405180910390a36001905092915050565b6000600160008473ffffffffffffffffffffffffffffffffffffffff1673ffffffffffffffffffffffffffffffffffffffff16815260200190815260200160002060008373ffffffffffffffffffffffffffffffffffffffff1673ffffffffffffffffffffffffffffffffffffffff16815260200190815260200160002054905092915050565b806000808473ffffffffffffffffffffffffffffffffffffffff1673ffffffffffffffffffffffffffffffffffffffff168152602001908152602001600020819055505050565b60008183610de591906112f7565b905092915050565b60008183610dfb9190611216565b905092915050565b60008183610e11919061126c565b905092915050565b60008183610e27919061129d565b905092915050565b600081359050610e3e816113d1565b92915050565b600081519050610e53816113e8565b92915050565b600081359050610e68816113ff565b92915050565b600060208284031215610e8057600080fd5b6000610e8e84828501610e2f565b91505092915050565b60008060408385031215610eaa57600080fd5b6000610eb885828601610e2f565b9250506020610ec985828601610e2f565b9150509250929050565b600080600060608486031215610ee857600080fd5b6000610ef686828701610e2f565b9350506020610f0786828701610e2f565b9250506040610f1886828701610e59565b9150509250925092565b60008060408385031215610f3557600080fd5b6000610f4385828601610e2f565b9250506020610f5485828601610e59565b9150509250929050565b600060208284031215610f7057600080fd5b6000610f7e84828501610e44565b91505092915050565b600060208284031215610f9957600080fd5b6000610fa784828501610e59565b91505092915050565b610fb98161132b565b82525050565b610fc88161133d565b82525050565b6000610fdb603583611205565b91507f4661696c757265207472616e7366657272696e67204461692066726f6d20736560008301527f6e64657220746f2044616920636f6e74726163742e00000000000000000000006020830152604082019050919050565b6000611041602e83611205565b91507f547279696e6720746f2072656465656d206d6f726520696e20756e6465726c7960008301527f696e67207468616e206f776e65640000000000000000000000000000000000006020830152604082019050919050565b60006110a7603483611205565b91507f4661696c757265207472616e7366657272696e67204461692046726f6d20636f60008301527f6e7472616374206261636b20746f20757365722e0000000000000000000000006020830152604082019050919050565b61110981611369565b82525050565b60006060820190506111246000830186610fb0565b6111316020830185610fb0565b61113e6040830184611100565b949350505050565b600060408201905061115b6000830185610fb0565b6111686020830184611100565b9392505050565b60006020820190506111846000830184610fbf565b92915050565b600060208201905081810360008301526111a381610fce565b9050919050565b600060208201905081810360008301526111c381611034565b9050919050565b600060208201905081810360008301526111e38161109a565b9050919050565b60006020820190506111ff6000830184611100565b92915050565b600082825260208201905092915050565b600061122182611369565b915061122c83611369565b9250827fffffffffffffffffffffffffffffffffffffffffffffffffffffffffffffffff0382111561126157611260611373565b5b828201905092915050565b600061127782611369565b915061128283611369565b925082611292576112916113a2565b5b828204905092915050565b60006112a882611369565b91506112b383611369565b9250817fffffffffffffffffffffffffffffffffffffffffffffffffffffffffffffffff04831182151516156112ec576112eb611373565b5b828202905092915050565b600061130282611369565b915061130d83611369565b9250828210156113205761131f611373565b5b828203905092915050565b600061133682611349565b9050919050565b60008115159050919050565b600073ffffffffffffffffffffffffffffffffffffffff82169050919050565b6000819050919050565b7f4e487b7100000000000000000000000000000000000000000000000000000000600052601160045260246000fd5b7f4e487b7100000000000000000000000000000000000000000000000000000000600052601260045260246000fd5b6113da8161132b565b81146113e557600080fd5b50565b6113f18161133d565b81146113fc57600080fd5b50565b61140881611369565b811461141357600080fd5b5056fea26469706673582212201e066d342e81b5187ad98190961a31ab1f7a71e80f371cff79a0881d4fa1da7364736f6c63430008000033",
  "linkReferences": {},
  "deployedLinkReferences": {}
}