{
  "contractName": "School",
  "abi": [
    {
      "inputs": [
        {
          "internalType": "string",
          "name": "_schoolName",
          "type": "string"
        }
      ],
      "payable": false,
      "stateMutability": "nonpayable",
      "type": "constructor"
    },
    {
      "payable": true,
      "stateMutability": "payable",
      "type": "fallback"
    },
    {
      "constant": true,
      "inputs": [],
      "name": "name",
      "outputs": [
        {
          "internalType": "string",
          "name": "",
          "type": "string"
        }
      ],
      "payable": false,
      "stateMutability": "view",
      "type": "function"
    },
    {
      "constant": true,
      "inputs": [],
      "name": "owner",
      "outputs": [
        {
          "internalType": "address",
          "name": "",
          "type": "address"
        }
      ],
      "payable": false,
      "stateMutability": "view",
      "type": "function"
    },
    {
      "constant": false,
      "inputs": [
        {
          "internalType": "string",
          "name": "_name",
          "type": "string"
        }
      ],
      "name": "createUserContract",
      "outputs": [],
      "payable": false,
      "stateMutability": "nonpayable",
      "type": "function"
    },
    {
      "constant": true,
      "inputs": [],
      "name": "getUserContract",
      "outputs": [
        {
          "internalType": "address",
          "name": "",
          "type": "address"
        }
      ],
      "payable": false,
      "stateMutability": "view",
      "type": "function"
    },
    {
      "constant": true,
      "inputs": [
        {
          "internalType": "address",
          "name": "_erc20Contract",
          "type": "address"
        }
      ],
      "name": "getBalance",
      "outputs": [
        {
          "internalType": "uint256",
          "name": "",
          "type": "uint256"
        }
      ],
      "payable": false,
      "stateMutability": "view",
      "type": "function"
    },
    {
      "constant": false,
      "inputs": [
        {
          "internalType": "uint256",
          "name": "amount",
          "type": "uint256"
        },
        {
          "internalType": "address",
          "name": "_erc20Contract",
          "type": "address"
        }
      ],
      "name": "withdrawBalance",
      "outputs": [
        {
          "internalType": "uint256",
          "name": "",
          "type": "uint256"
        }
      ],
      "payable": false,
      "stateMutability": "nonpayable",
      "type": "function"
    }
  ],
  "bytecode": "0x608060405234801561001057600080fd5b506040516125933803806125938339818101604052602081101561003357600080fd5b810190808051604051939291908464010000000082111561005357600080fd5b8382019150602082018581111561006957600080fd5b825186600182028301116401000000008211171561008657600080fd5b8083526020830192505050908051906020019080838360005b838110156100ba57808201518184015260208101905061009f565b50505050905090810190601f1680156100e75780820380516001836020036101000a031916815260200191505b50604052505050806001908051906020019061010492919061014b565b50336000806101000a81548173ffffffffffffffffffffffffffffffffffffffff021916908373ffffffffffffffffffffffffffffffffffffffff160217905550506101f0565b828054600181600116156101000203166002900490600052602060002090601f016020900481019282601f1061018c57805160ff19168380011785556101ba565b828001600101855582156101ba579182015b828111156101b957825182559160200191906001019061019e565b5b5090506101c791906101cb565b5090565b6101ed91905b808211156101e95760008160009055506001016101d1565b5090565b90565b612394806101ff6000396000f3fe6080604052600436106100555760003560e01c8063063473c51461005757806306fdde031461011f578063423928b7146101af57806379e81f39146102065780638da5cb5b14610275578063f8b2cb4f146102cc575b005b34801561006357600080fd5b5061011d6004803603602081101561007a57600080fd5b810190808035906020019064010000000081111561009757600080fd5b8201836020820111156100a957600080fd5b803590602001918460018302840111640100000000831117156100cb57600080fd5b91908080601f016020809104026020016040519081016040528093929190818152602001838380828437600081840152601f19601f820116905080830192505050505050509192919290505050610331565b005b34801561012b57600080fd5b5061013461047e565b6040518080602001828103825283818151815260200191508051906020019080838360005b83811015610174578082015181840152602081019050610159565b50505050905090810190601f1680156101a15780820380516001836020036101000a031916815260200191505b509250505060405180910390f35b3480156101bb57600080fd5b506101c461051c565b604051808273ffffffffffffffffffffffffffffffffffffffff1673ffffffffffffffffffffffffffffffffffffffff16815260200191505060405180910390f35b34801561021257600080fd5b5061025f6004803603604081101561022957600080fd5b8101908080359060200190929190803573ffffffffffffffffffffffffffffffffffffffff169060200190929190505050610583565b6040518082815260200191505060405180910390f35b34801561028157600080fd5b5061028a610844565b604051808273ffffffffffffffffffffffffffffffffffffffff1673ffffffffffffffffffffffffffffffffffffffff16815260200191505060405180910390f35b3480156102d857600080fd5b5061031b600480360360208110156102ef57600080fd5b81019080803573ffffffffffffffffffffffffffffffffffffffff169060200190929190505050610869565b6040518082815260200191505060405180910390f35b308160405161033f9061092f565b808373ffffffffffffffffffffffffffffffffffffffff1673ffffffffffffffffffffffffffffffffffffffff16815260200180602001828103825283818151815260200191508051906020019080838360005b838110156103ae578082015181840152602081019050610393565b50505050905090810190601f1680156103db5780820380516001836020036101000a031916815260200191505b509350505050604051809103906000f0801580156103fd573d6000803e3d6000fd5b50600260003373ffffffffffffffffffffffffffffffffffffffff1673ffffffffffffffffffffffffffffffffffffffff16815260200190815260200160002060006101000a81548173ffffffffffffffffffffffffffffffffffffffff021916908373ffffffffffffffffffffffffffffffffffffffff16021790555050565b60018054600181600116156101000203166002900480601f0160208091040260200160405190810160405280929190818152602001828054600181600116156101000203166002900480156105145780601f106104e957610100808354040283529160200191610514565b820191906000526020600020905b8154815290600101906020018083116104f757829003601f168201915b505050505081565b6000600260003373ffffffffffffffffffffffffffffffffffffffff1673ffffffffffffffffffffffffffffffffffffffff16815260200190815260200160002060009054906101000a900473ffffffffffffffffffffffffffffffffffffffff16905090565b60008082905060008173ffffffffffffffffffffffffffffffffffffffff166370a08231306040518263ffffffff1660e01b8152600401808273ffffffffffffffffffffffffffffffffffffffff1673ffffffffffffffffffffffffffffffffffffffff16815260200191505060206040518083038186803b15801561060857600080fd5b505afa15801561061c573d6000803e3d6000fd5b505050506040513d602081101561063257600080fd5b810190808051906020019092919050505090508481111561069e576040517f08c379a000000000000000000000000000000000000000000000000000000000815260040180806020018281038252602181526020018061233f6021913960400191505060405180910390fd5b8173ffffffffffffffffffffffffffffffffffffffff1663a9059cbb6000809054906101000a900473ffffffffffffffffffffffffffffffffffffffff16876040518363ffffffff1660e01b8152600401808373ffffffffffffffffffffffffffffffffffffffff1673ffffffffffffffffffffffffffffffffffffffff16815260200182815260200192505050602060405180830381600087803b15801561074657600080fd5b505af115801561075a573d6000803e3d6000fd5b505050506040513d602081101561077057600080fd5b8101908080519060200190929190505050508173ffffffffffffffffffffffffffffffffffffffff166370a08231306040518263ffffffff1660e01b8152600401808273ffffffffffffffffffffffffffffffffffffffff1673ffffffffffffffffffffffffffffffffffffffff16815260200191505060206040518083038186803b1580156107ff57600080fd5b505afa158015610813573d6000803e3d6000fd5b505050506040513d602081101561082957600080fd5b81019080805190602001909291905050509250505092915050565b6000809054906101000a900473ffffffffffffffffffffffffffffffffffffffff1681565b6000808290508073ffffffffffffffffffffffffffffffffffffffff166370a08231306040518263ffffffff1660e01b8152600401808273ffffffffffffffffffffffffffffffffffffffff1673ffffffffffffffffffffffffffffffffffffffff16815260200191505060206040518083038186803b1580156108ec57600080fd5b505afa158015610900573d6000803e3d6000fd5b505050506040513d602081101561091657600080fd5b8101908080519060200190929190505050915050919050565b611a028061093d8339019056fe60806040523480156200001157600080fd5b5060405162001a0238038062001a02833981810160405260408110156200003757600080fd5b8101908080519060200190929190805160405193929190846401000000008211156200006257600080fd5b838201915060208201858111156200007957600080fd5b82518660018202830111640100000000821117156200009757600080fd5b8083526020830192505050908051906020019080838360005b83811015620000cd578082015181840152602081019050620000b0565b50505050905090810190601f168015620000fb5780820380516001836020036101000a031916815260200191505b5060405250505080600290805190602001906200011a929190620001b4565b5033600160006101000a81548173ffffffffffffffffffffffffffffffffffffffff021916908373ffffffffffffffffffffffffffffffffffffffff160217905550816000806101000a81548173ffffffffffffffffffffffffffffffffffffffff021916908373ffffffffffffffffffffffffffffffffffffffff16021790555060006003819055506000600581905550505062000263565b828054600181600116156101000203166002900490600052602060002090601f016020900481019282601f10620001f757805160ff191683800117855562000228565b8280016001018555821562000228579182015b82811115620002275782518255916020019190600101906200020a565b5b5090506200023791906200023b565b5090565b6200026091905b808211156200025c57600081600090555060010162000242565b5090565b90565b61178f80620002736000396000f3fe6080604052600436106100c25760003560e01c80639ee9a3cf1161007f578063bca1c85d11610059578063bca1c85d1461048b578063d34d3dac146104e2578063f10fdf5c1461050d578063f8b2cb4f14610538576100c2565b80639ee9a3cf1461035a578063afe3bd8f146103cd578063b460af94146103f8576100c2565b806306fdde03146100c457806317d7de7c146101545780637c2c69c0146101e45780638340f549146102495780638da5cb5b146102d8578063936de2a11461032f575b005b3480156100d057600080fd5b506100d961059d565b6040518080602001828103825283818151815260200191508051906020019080838360005b838110156101195780820151818401526020810190506100fe565b50505050905090810190601f1680156101465780820380516001836020036101000a031916815260200191505b509250505060405180910390f35b34801561016057600080fd5b5061016961063b565b6040518080602001828103825283818151815260200191508051906020019080838360005b838110156101a957808201518184015260208101905061018e565b50505050905090810190601f1680156101d65780820380516001836020036101000a031916815260200191505b509250505060405180910390f35b3480156101f057600080fd5b506102336004803603602081101561020757600080fd5b81019080803573ffffffffffffffffffffffffffffffffffffffff1690602001909291905050506106dd565b6040518082815260200191505060405180910390f35b34801561025557600080fd5b506102c26004803603606081101561026c57600080fd5b81019080803573ffffffffffffffffffffffffffffffffffffffff169060200190929190803573ffffffffffffffffffffffffffffffffffffffff169060200190929190803590602001909291905050506109de565b6040518082815260200191505060405180910390f35b3480156102e457600080fd5b506102ed610c46565b604051808273ffffffffffffffffffffffffffffffffffffffff1673ffffffffffffffffffffffffffffffffffffffff16815260200191505060405180910390f35b34801561033b57600080fd5b50610344610c6c565b6040518082815260200191505060405180910390f35b34801561036657600080fd5b506103b36004803603604081101561037d57600080fd5b8101908080359060200190929190803573ffffffffffffffffffffffffffffffffffffffff169060200190929190505050610c72565b604051808215151515815260200191505060405180910390f35b3480156103d957600080fd5b506103e2610ed7565b6040518082815260200191505060405180910390f35b34801561040457600080fd5b506104716004803603606081101561041b57600080fd5b8101908080359060200190929190803573ffffffffffffffffffffffffffffffffffffffff169060200190929190803573ffffffffffffffffffffffffffffffffffffffff169060200190929190505050610edd565b604051808215151515815260200191505060405180910390f35b34801561049757600080fd5b506104a06113be565b604051808273ffffffffffffffffffffffffffffffffffffffff1673ffffffffffffffffffffffffffffffffffffffff16815260200191505060405180910390f35b3480156104ee57600080fd5b506104f76113e3565b6040518082815260200191505060405180910390f35b34801561051957600080fd5b506105226113e9565b6040518082815260200191505060405180910390f35b34801561054457600080fd5b506105876004803603602081101561055b57600080fd5b81019080803573ffffffffffffffffffffffffffffffffffffffff1690602001909291905050506113f3565b6040518082815260200191505060405180910390f35b60028054600181600116156101000203166002900480601f0160208091040260200160405190810160405280929190818152602001828054600181600116156101000203166002900480156106335780601f1061060857610100808354040283529160200191610633565b820191906000526020600020905b81548152906001019060200180831161061657829003601f168201915b505050505081565b606060028054600181600116156101000203166002900480601f0160208091040260200160405190810160405280929190818152602001828054600181600116156101000203166002900480156106d35780601f106106a8576101008083540402835291602001916106d3565b820191906000526020600020905b8154815290600101906020018083116106b657829003601f168201915b5050505050905090565b60008060035414156106f257600090506109d9565b600082905060008173ffffffffffffffffffffffffffffffffffffffff16633af9e669306040518263ffffffff1660e01b8152600401808273ffffffffffffffffffffffffffffffffffffffff1673ffffffffffffffffffffffffffffffffffffffff168152602001915050602060405180830381600087803b15801561077857600080fd5b505af115801561078c573d6000803e3d6000fd5b505050506040513d60208110156107a257600080fd5b8101908080519060200190929190505050905060006107d66107c86003546004546114c8565b670de0b6b3a764000061154e565b90507f8d1cced004452bd270777a8c670f9f7e7c4fdde56f2db331fe289d39dc2624ad8260405180806020018381526020018281038252600a8152602001807f63757242616c616e6365000000000000000000000000000000000000000000008152506020019250505060405180910390a17f8d1cced004452bd270777a8c670f9f7e7c4fdde56f2db331fe289d39dc2624ad8160405180806020018381526020018281038252600a8152602001807f61766742616c616e6365000000000000000000000000000000000000000000008152506020019250505060405180910390a17f8d1cced004452bd270777a8c670f9f7e7c4fdde56f2db331fe289d39dc2624ad8183036040518080602001838152602001828103825260178152602001807f63757242616c616e6365202d2061766742616c616e63650000000000000000008152506020019250505060405180910390a1808210156109af577f8d1cced004452bd270777a8c670f9f7e7c4fdde56f2db331fe289d39dc2624ad600060405180806020018381526020018281038252600d8152602001807f696e7465726573742072617465000000000000000000000000000000000000008152506020019250505060405180910390a1600093505050506109d9565b6109d36109cd670de0b6b3a76400006109c885856115dd565b6114c8565b8261154e565b93505050505b919050565b600080849050600084905060008173ffffffffffffffffffffffffffffffffffffffff1663bd6d894d6040518163ffffffff1660e01b8152600401602060405180830381600087803b158015610a3357600080fd5b505af1158015610a47573d6000803e3d6000fd5b505050506040513d6020811015610a5d57600080fd5b810190808051906020019092919050505090508273ffffffffffffffffffffffffffffffffffffffff1663095ea7b387876040518363ffffffff1660e01b8152600401808373ffffffffffffffffffffffffffffffffffffffff1673ffffffffffffffffffffffffffffffffffffffff16815260200182815260200192505050602060405180830381600087803b158015610af757600080fd5b505af1158015610b0b573d6000803e3d6000fd5b505050506040513d6020811015610b2157600080fd5b81019080805190602001909291905050505060008273ffffffffffffffffffffffffffffffffffffffff1663a0712d68876040518263ffffffff1660e01b815260040180828152602001915050602060405180830381600087803b158015610b8857600080fd5b505af1158015610b9c573d6000803e3d6000fd5b505050506040513d6020811015610bb257600080fd5b810190808051906020019092919050505090506000811415610c38576000610beb610be588670de0b6b3a76400006114c8565b8461154e565b905060006003549050610c0060035483611666565b600381905550610c2f610c27610c18600454846114c8565b610c2287866114c8565b611666565b60035461154e565b60048190555050505b809450505050509392505050565b600160009054906101000a900473ffffffffffffffffffffffffffffffffffffffff1681565b60045481565b6000808290507f8d1cced004452bd270777a8c670f9f7e7c4fdde56f2db331fe289d39dc2624ad846040518080602001838152602001828103825260098152602001807f616d6f756e74203d2000000000000000000000000000000000000000000000008152506020019250505060405180910390a17f8d1cced004452bd270777a8c670f9f7e7c4fdde56f2db331fe289d39dc2624ad8173ffffffffffffffffffffffffffffffffffffffff16633af9e669306040518263ffffffff1660e01b8152600401808273ffffffffffffffffffffffffffffffffffffffff1673ffffffffffffffffffffffffffffffffffffffff168152602001915050602060405180830381600087803b158015610d8857600080fd5b505af1158015610d9c573d6000803e3d6000fd5b505050506040513d6020811015610db257600080fd5b81019080805190602001909291905050506040518080602001838152602001828103825260138152602001807f62616c616e63654f66556e6465726c79696e67000000000000000000000000008152506020019250505060405180910390a18073ffffffffffffffffffffffffffffffffffffffff16633af9e669306040518263ffffffff1660e01b8152600401808273ffffffffffffffffffffffffffffffffffffffff1673ffffffffffffffffffffffffffffffffffffffff168152602001915050602060405180830381600087803b158015610e9057600080fd5b505af1158015610ea4573d6000803e3d6000fd5b505050506040513d6020811015610eba57600080fd5b810190808051906020019092919050505084111591505092915050565b60035481565b600080839050600083905060008173ffffffffffffffffffffffffffffffffffffffff1663bd6d894d6040518163ffffffff1660e01b8152600401602060405180830381600087803b158015610f3257600080fd5b505af1158015610f46573d6000803e3d6000fd5b505050506040513d6020811015610f5c57600080fd5b810190808051906020019092919050505090506000610f7a866106dd565b90506000610fb4610f938a670de0b6b3a76400006114c8565b610faf670de0b6b3a7640000610faa86600261154e565b611666565b61154e565b90506000610fe4610fd683610fd1670de0b6b3a764000087611666565b6114c8565b670de0b6b3a764000061154e565b9050610ff08189610c72565b61104e577f7979dc87a8aa237e89a521cf8882b835cf9a757fda430f3a2d925e1ef6c5bf576040518080602001828103825260278152602001806117346027913960400191505060405180910390a1600096505050505050506113b7565b60008573ffffffffffffffffffffffffffffffffffffffff1663852a12e3836040518263ffffffff1660e01b815260040180828152602001915050602060405180830381600087803b1580156110a357600080fd5b505af11580156110b7573d6000803e3d6000fd5b505050506040513d60208110156110cd57600080fd5b8101908080519060200190929190505050905060008114156113585761110f60035461110a61110486670de0b6b3a76400006114c8565b8861154e565b6115dd565b6003819055507f8d1cced004452bd270777a8c670f9f7e7c4fdde56f2db331fe289d39dc2624ad611140838d6115dd565b60405180806020018381526020018281038252601e8152602001807f7472616e73666572696e6720746f207363686f6f6c20636f6e747261637400008152506020019250505060405180910390a1611198828c6115dd565b6005600082825401925050819055508673ffffffffffffffffffffffffffffffffffffffff1663a9059cbb6000809054906101000a900473ffffffffffffffffffffffffffffffffffffffff166111ef858f6115dd565b6040518363ffffffff1660e01b8152600401808373ffffffffffffffffffffffffffffffffffffffff1673ffffffffffffffffffffffffffffffffffffffff16815260200182815260200192505050602060405180830381600087803b15801561125857600080fd5b505af115801561126c573d6000803e3d6000fd5b505050506040513d602081101561128257600080fd5b8101908080519060200190929190505050508673ffffffffffffffffffffffffffffffffffffffff1663a9059cbb338d6040518363ffffffff1660e01b8152600401808373ffffffffffffffffffffffffffffffffffffffff1673ffffffffffffffffffffffffffffffffffffffff16815260200182815260200192505050602060405180830381600087803b15801561131b57600080fd5b505af115801561132f573d6000803e3d6000fd5b505050506040513d602081101561134557600080fd5b8101908080519060200190929190505050505b7f8d1cced004452bd270777a8c670f9f7e7c4fdde56f2db331fe289d39dc2624ad816040518080602001838152602001828103825260248152602001806116ef602491396040019250505060405180910390a160019750505050505050505b9392505050565b6000809054906101000a900473ffffffffffffffffffffffffffffffffffffffff1681565b60055481565b6000600554905090565b60008082905060008173ffffffffffffffffffffffffffffffffffffffff1663bd6d894d6040518163ffffffff1660e01b8152600401602060405180830381600087803b15801561144357600080fd5b505af1158015611457573d6000803e3d6000fd5b505050506040513d602081101561146d57600080fd5b8101908080519060200190929190505050905060006114bb6114b56003546114b06114a260035461149d8b6106dd565b6114c8565b671bc16d674ec8000061154e565b611666565b836114c8565b9050809350505050919050565b6000808314156114db5760009050611548565b60008284029050828482816114ec57fe5b0414611543576040517f08c379a00000000000000000000000000000000000000000000000000000000081526004018080602001828103825260218152602001806117136021913960400191505060405180910390fd5b809150505b92915050565b60008082116115c5576040517f08c379a000000000000000000000000000000000000000000000000000000000815260040180806020018281038252601a8152602001807f536166654d6174683a206469766973696f6e206279207a65726f00000000000081525060200191505060405180910390fd5b60008284816115d057fe5b0490508091505092915050565b600082821115611655576040517f08c379a000000000000000000000000000000000000000000000000000000000815260040180806020018281038252601e8152602001807f536166654d6174683a207375627472616374696f6e206f766572666c6f77000081525060200191505060405180910390fd5b600082840390508091505092915050565b6000808284019050838110156116e4576040517f08c379a000000000000000000000000000000000000000000000000000000000815260040180806020018281038252601b8152602001807f536166654d6174683a206164646974696f6e206f766572666c6f77000000000081525060200191505060405180910390fd5b809150509291505056fe49662074686973206973206e6f7420302c2074686572652077617320616e206572726f72536166654d6174683a206d756c7469706c69636174696f6e206f766572666c6f775468657265206973206e6f7420656e6f75676820666f7220746865207769746864726177616c2ea265627a7a72315820873171cf1d8e9e8685b392d2db5fdcf175c81ef2fb83e0354db33be19d44c43164736f6c6343000510003263616e6e6f74207769746864726177206d6f7265207468616e2062616c616e6365a265627a7a7231582079d1a01a0dadb45e416dcb0656c88071dd87fd9aab73199114dfac59dead4b1f64736f6c63430005100032",
  "source": "pragma solidity ^0.5.0;\n\nimport \"./User.sol\";\n\ncontract School {\n    address public owner;\n    string public name;\n    mapping(address => address) _users;\n\n    constructor(string memory _schoolName) public {\n      name = _schoolName;\n      owner = msg.sender;\n    }\n\n    function createUserContract(string memory _name) public {\n        // instantiate a new user contract\n        _users[msg.sender] = address(new User(address(this), _name));\n    }\n\n    function getUserContract() public view returns (address) {\n        return _users[msg.sender];\n    }\n\n    function getBalance(address _erc20Contract) public view returns (uint256) {\n        Erc20 underlying = Erc20(_erc20Contract);\n        return underlying.balanceOf(address(this));\n    }\n\n    function withdrawBalance(uint256 amount, address _erc20Contract) public returns (uint256) {\n        Erc20 underlying = Erc20(_erc20Contract);\n        uint256 balance = underlying.balanceOf(address(this));\n        require (balance <= amount, \"cannot withdraw more than balance\");\n        underlying.transfer(owner, amount);\n\n        return underlying.balanceOf(address(this));\n    }\n\n    function() external payable {}\n}",
  "sourcePath": "/Users/daryakaviani/b@b/consulting-unicef/blockchain/contracts/School.sol",
  "compiler": {
    "name": "solc",
    "version": "0.5.16+commit.9c3226ce.Emscripten.clang"
  },
  "schemaVersion": "3.3.1",
  "updatedAt": "2021-03-07T17:27:27.633Z",
  "networkType": "ethereum",
  "devdoc": {
    "methods": {}
  },
  "userdoc": {
    "methods": {}
  }
}