{
  "contractName": "User",
  "abi": [
    {
      "inputs": [
        {
          "internalType": "address payable",
          "name": "_schoolContract",
          "type": "address"
        },
        {
          "internalType": "string",
          "name": "_name",
          "type": "string"
        }
      ],
      "payable": false,
      "stateMutability": "nonpayable",
      "type": "constructor"
    },
    {
      "anonymous": false,
      "inputs": [
        {
          "indexed": false,
          "internalType": "string",
          "name": "",
          "type": "string"
        }
      ],
      "name": "InsufficientBalance",
      "type": "event"
    },
    {
      "anonymous": false,
      "inputs": [
        {
          "indexed": false,
          "internalType": "string",
          "name": "",
          "type": "string"
        },
        {
          "indexed": false,
          "internalType": "uint256",
          "name": "",
          "type": "uint256"
        }
      ],
      "name": "MyLog",
      "type": "event"
    },
    {
      "payable": true,
      "stateMutability": "payable",
      "type": "fallback"
    },
    {
      "constant": true,
      "inputs": [],
      "name": "avgExchangeRate",
      "outputs": [
        {
          "internalType": "uint256",
          "name": "",
          "type": "uint256"
        }
      ],
      "payable": false,
      "stateMutability": "view",
      "type": "function"
    },
    {
      "constant": true,
      "inputs": [],
      "name": "cTokenBalance",
      "outputs": [
        {
          "internalType": "uint256",
          "name": "",
          "type": "uint256"
        }
      ],
      "payable": false,
      "stateMutability": "view",
      "type": "function"
    },
    {
      "constant": true,
      "inputs": [],
      "name": "name",
      "outputs": [
        {
          "internalType": "string",
          "name": "",
          "type": "string"
        }
      ],
      "payable": false,
      "stateMutability": "view",
      "type": "function"
    },
    {
      "constant": true,
      "inputs": [],
      "name": "owner",
      "outputs": [
        {
          "internalType": "address",
          "name": "",
          "type": "address"
        }
      ],
      "payable": false,
      "stateMutability": "view",
      "type": "function"
    },
    {
      "constant": true,
      "inputs": [],
      "name": "schoolContract",
      "outputs": [
        {
          "internalType": "address payable",
          "name": "",
          "type": "address"
        }
      ],
      "payable": false,
      "stateMutability": "view",
      "type": "function"
    },
    {
      "constant": true,
      "inputs": [],
      "name": "schoolContributions",
      "outputs": [
        {
          "internalType": "uint256",
          "name": "",
          "type": "uint256"
        }
      ],
      "payable": false,
      "stateMutability": "view",
      "type": "function"
    },
    {
      "constant": false,
      "inputs": [
        {
          "internalType": "address",
          "name": "_erc20Contract",
          "type": "address"
        },
        {
          "internalType": "address",
          "name": "_cErc20Contract",
          "type": "address"
        },
        {
          "internalType": "uint256",
          "name": "_numTokensToSupply",
          "type": "uint256"
        }
      ],
      "name": "deposit",
      "outputs": [
        {
          "internalType": "uint256",
          "name": "",
          "type": "uint256"
        }
      ],
      "payable": false,
      "stateMutability": "nonpayable",
      "type": "function"
    },
    {
      "constant": false,
      "inputs": [
        {
          "internalType": "uint256",
          "name": "amount",
          "type": "uint256"
        },
        {
          "internalType": "address",
          "name": "_erc20Contract",
          "type": "address"
        },
        {
          "internalType": "address",
          "name": "_cErc20Contract",
          "type": "address"
        }
      ],
      "name": "withdraw",
      "outputs": [
        {
          "internalType": "bool",
          "name": "",
          "type": "bool"
        }
      ],
      "payable": false,
      "stateMutability": "nonpayable",
      "type": "function"
    },
    {
      "constant": false,
      "inputs": [
        {
          "internalType": "uint256",
          "name": "amount",
          "type": "uint256"
        },
        {
          "internalType": "address",
          "name": "_cErc20Contract",
          "type": "address"
        }
      ],
      "name": "checkHasEnough",
      "outputs": [
        {
          "internalType": "bool",
          "name": "",
          "type": "bool"
        }
      ],
      "payable": false,
      "stateMutability": "nonpayable",
      "type": "function"
    },
    {
      "constant": false,
      "inputs": [
        {
          "internalType": "address",
          "name": "_cErc20Contract",
          "type": "address"
        }
      ],
      "name": "interestRate",
      "outputs": [
        {
          "internalType": "uint256",
          "name": "",
          "type": "uint256"
        }
      ],
      "payable": false,
      "stateMutability": "nonpayable",
      "type": "function"
    },
    {
      "constant": false,
      "inputs": [
        {
          "internalType": "address",
          "name": "_cErc20Contract",
          "type": "address"
        }
      ],
      "name": "getBalance",
      "outputs": [
        {
          "internalType": "uint256",
          "name": "",
          "type": "uint256"
        }
      ],
      "payable": false,
      "stateMutability": "nonpayable",
      "type": "function"
    },
    {
      "constant": true,
      "inputs": [],
      "name": "getContribution",
      "outputs": [
        {
          "internalType": "uint256",
          "name": "",
          "type": "uint256"
        }
      ],
      "payable": false,
      "stateMutability": "view",
      "type": "function"
    },
    {
      "constant": true,
      "inputs": [],
      "name": "getName",
      "outputs": [
        {
          "internalType": "string",
          "name": "",
          "type": "string"
        }
      ],
      "payable": false,
      "stateMutability": "view",
      "type": "function"
    }
  ],
  "bytecode": "0x60806040523480156200001157600080fd5b5060405162001a0238038062001a02833981810160405260408110156200003757600080fd5b8101908080519060200190929190805160405193929190846401000000008211156200006257600080fd5b838201915060208201858111156200007957600080fd5b82518660018202830111640100000000821117156200009757600080fd5b8083526020830192505050908051906020019080838360005b83811015620000cd578082015181840152602081019050620000b0565b50505050905090810190601f168015620000fb5780820380516001836020036101000a031916815260200191505b5060405250505080600290805190602001906200011a929190620001b4565b5033600160006101000a81548173ffffffffffffffffffffffffffffffffffffffff021916908373ffffffffffffffffffffffffffffffffffffffff160217905550816000806101000a81548173ffffffffffffffffffffffffffffffffffffffff021916908373ffffffffffffffffffffffffffffffffffffffff16021790555060006003819055506000600581905550505062000263565b828054600181600116156101000203166002900490600052602060002090601f016020900481019282601f10620001f757805160ff191683800117855562000228565b8280016001018555821562000228579182015b82811115620002275782518255916020019190600101906200020a565b5b5090506200023791906200023b565b5090565b6200026091905b808211156200025c57600081600090555060010162000242565b5090565b90565b61178f80620002736000396000f3fe6080604052600436106100c25760003560e01c80639ee9a3cf1161007f578063bca1c85d11610059578063bca1c85d1461048b578063d34d3dac146104e2578063f10fdf5c1461050d578063f8b2cb4f14610538576100c2565b80639ee9a3cf1461035a578063afe3bd8f146103cd578063b460af94146103f8576100c2565b806306fdde03146100c457806317d7de7c146101545780637c2c69c0146101e45780638340f549146102495780638da5cb5b146102d8578063936de2a11461032f575b005b3480156100d057600080fd5b506100d961059d565b6040518080602001828103825283818151815260200191508051906020019080838360005b838110156101195780820151818401526020810190506100fe565b50505050905090810190601f1680156101465780820380516001836020036101000a031916815260200191505b509250505060405180910390f35b34801561016057600080fd5b5061016961063b565b6040518080602001828103825283818151815260200191508051906020019080838360005b838110156101a957808201518184015260208101905061018e565b50505050905090810190601f1680156101d65780820380516001836020036101000a031916815260200191505b509250505060405180910390f35b3480156101f057600080fd5b506102336004803603602081101561020757600080fd5b81019080803573ffffffffffffffffffffffffffffffffffffffff1690602001909291905050506106dd565b6040518082815260200191505060405180910390f35b34801561025557600080fd5b506102c26004803603606081101561026c57600080fd5b81019080803573ffffffffffffffffffffffffffffffffffffffff169060200190929190803573ffffffffffffffffffffffffffffffffffffffff169060200190929190803590602001909291905050506109de565b6040518082815260200191505060405180910390f35b3480156102e457600080fd5b506102ed610c46565b604051808273ffffffffffffffffffffffffffffffffffffffff1673ffffffffffffffffffffffffffffffffffffffff16815260200191505060405180910390f35b34801561033b57600080fd5b50610344610c6c565b6040518082815260200191505060405180910390f35b34801561036657600080fd5b506103b36004803603604081101561037d57600080fd5b8101908080359060200190929190803573ffffffffffffffffffffffffffffffffffffffff169060200190929190505050610c72565b604051808215151515815260200191505060405180910390f35b3480156103d957600080fd5b506103e2610ed7565b6040518082815260200191505060405180910390f35b34801561040457600080fd5b506104716004803603606081101561041b57600080fd5b8101908080359060200190929190803573ffffffffffffffffffffffffffffffffffffffff169060200190929190803573ffffffffffffffffffffffffffffffffffffffff169060200190929190505050610edd565b604051808215151515815260200191505060405180910390f35b34801561049757600080fd5b506104a06113be565b604051808273ffffffffffffffffffffffffffffffffffffffff1673ffffffffffffffffffffffffffffffffffffffff16815260200191505060405180910390f35b3480156104ee57600080fd5b506104f76113e3565b6040518082815260200191505060405180910390f35b34801561051957600080fd5b506105226113e9565b6040518082815260200191505060405180910390f35b34801561054457600080fd5b506105876004803603602081101561055b57600080fd5b81019080803573ffffffffffffffffffffffffffffffffffffffff1690602001909291905050506113f3565b6040518082815260200191505060405180910390f35b60028054600181600116156101000203166002900480601f0160208091040260200160405190810160405280929190818152602001828054600181600116156101000203166002900480156106335780601f1061060857610100808354040283529160200191610633565b820191906000526020600020905b81548152906001019060200180831161061657829003601f168201915b505050505081565b606060028054600181600116156101000203166002900480601f0160208091040260200160405190810160405280929190818152602001828054600181600116156101000203166002900480156106d35780601f106106a8576101008083540402835291602001916106d3565b820191906000526020600020905b8154815290600101906020018083116106b657829003601f168201915b5050505050905090565b60008060035414156106f257600090506109d9565b600082905060008173ffffffffffffffffffffffffffffffffffffffff16633af9e669306040518263ffffffff1660e01b8152600401808273ffffffffffffffffffffffffffffffffffffffff1673ffffffffffffffffffffffffffffffffffffffff168152602001915050602060405180830381600087803b15801561077857600080fd5b505af115801561078c573d6000803e3d6000fd5b505050506040513d60208110156107a257600080fd5b8101908080519060200190929190505050905060006107d66107c86003546004546114c8565b670de0b6b3a764000061154e565b90507f8d1cced004452bd270777a8c670f9f7e7c4fdde56f2db331fe289d39dc2624ad8260405180806020018381526020018281038252600a8152602001807f63757242616c616e6365000000000000000000000000000000000000000000008152506020019250505060405180910390a17f8d1cced004452bd270777a8c670f9f7e7c4fdde56f2db331fe289d39dc2624ad8160405180806020018381526020018281038252600a8152602001807f61766742616c616e6365000000000000000000000000000000000000000000008152506020019250505060405180910390a17f8d1cced004452bd270777a8c670f9f7e7c4fdde56f2db331fe289d39dc2624ad8183036040518080602001838152602001828103825260178152602001807f63757242616c616e6365202d2061766742616c616e63650000000000000000008152506020019250505060405180910390a1808210156109af577f8d1cced004452bd270777a8c670f9f7e7c4fdde56f2db331fe289d39dc2624ad600060405180806020018381526020018281038252600d8152602001807f696e7465726573742072617465000000000000000000000000000000000000008152506020019250505060405180910390a1600093505050506109d9565b6109d36109cd670de0b6b3a76400006109c885856115dd565b6114c8565b8261154e565b93505050505b919050565b600080849050600084905060008173ffffffffffffffffffffffffffffffffffffffff1663bd6d894d6040518163ffffffff1660e01b8152600401602060405180830381600087803b158015610a3357600080fd5b505af1158015610a47573d6000803e3d6000fd5b505050506040513d6020811015610a5d57600080fd5b810190808051906020019092919050505090508273ffffffffffffffffffffffffffffffffffffffff1663095ea7b387876040518363ffffffff1660e01b8152600401808373ffffffffffffffffffffffffffffffffffffffff1673ffffffffffffffffffffffffffffffffffffffff16815260200182815260200192505050602060405180830381600087803b158015610af757600080fd5b505af1158015610b0b573d6000803e3d6000fd5b505050506040513d6020811015610b2157600080fd5b81019080805190602001909291905050505060008273ffffffffffffffffffffffffffffffffffffffff1663a0712d68876040518263ffffffff1660e01b815260040180828152602001915050602060405180830381600087803b158015610b8857600080fd5b505af1158015610b9c573d6000803e3d6000fd5b505050506040513d6020811015610bb257600080fd5b810190808051906020019092919050505090506000811415610c38576000610beb610be588670de0b6b3a76400006114c8565b8461154e565b905060006003549050610c0060035483611666565b600381905550610c2f610c27610c18600454846114c8565b610c2287866114c8565b611666565b60035461154e565b60048190555050505b809450505050509392505050565b600160009054906101000a900473ffffffffffffffffffffffffffffffffffffffff1681565b60045481565b6000808290507f8d1cced004452bd270777a8c670f9f7e7c4fdde56f2db331fe289d39dc2624ad846040518080602001838152602001828103825260098152602001807f616d6f756e74203d2000000000000000000000000000000000000000000000008152506020019250505060405180910390a17f8d1cced004452bd270777a8c670f9f7e7c4fdde56f2db331fe289d39dc2624ad8173ffffffffffffffffffffffffffffffffffffffff16633af9e669306040518263ffffffff1660e01b8152600401808273ffffffffffffffffffffffffffffffffffffffff1673ffffffffffffffffffffffffffffffffffffffff168152602001915050602060405180830381600087803b158015610d8857600080fd5b505af1158015610d9c573d6000803e3d6000fd5b505050506040513d6020811015610db257600080fd5b81019080805190602001909291905050506040518080602001838152602001828103825260138152602001807f62616c616e63654f66556e6465726c79696e67000000000000000000000000008152506020019250505060405180910390a18073ffffffffffffffffffffffffffffffffffffffff16633af9e669306040518263ffffffff1660e01b8152600401808273ffffffffffffffffffffffffffffffffffffffff1673ffffffffffffffffffffffffffffffffffffffff168152602001915050602060405180830381600087803b158015610e9057600080fd5b505af1158015610ea4573d6000803e3d6000fd5b505050506040513d6020811015610eba57600080fd5b810190808051906020019092919050505084111591505092915050565b60035481565b600080839050600083905060008173ffffffffffffffffffffffffffffffffffffffff1663bd6d894d6040518163ffffffff1660e01b8152600401602060405180830381600087803b158015610f3257600080fd5b505af1158015610f46573d6000803e3d6000fd5b505050506040513d6020811015610f5c57600080fd5b810190808051906020019092919050505090506000610f7a866106dd565b90506000610fb4610f938a670de0b6b3a76400006114c8565b610faf670de0b6b3a7640000610faa86600261154e565b611666565b61154e565b90506000610fe4610fd683610fd1670de0b6b3a764000087611666565b6114c8565b670de0b6b3a764000061154e565b9050610ff08189610c72565b61104e577f7979dc87a8aa237e89a521cf8882b835cf9a757fda430f3a2d925e1ef6c5bf576040518080602001828103825260278152602001806117346027913960400191505060405180910390a1600096505050505050506113b7565b60008573ffffffffffffffffffffffffffffffffffffffff1663852a12e3836040518263ffffffff1660e01b815260040180828152602001915050602060405180830381600087803b1580156110a357600080fd5b505af11580156110b7573d6000803e3d6000fd5b505050506040513d60208110156110cd57600080fd5b8101908080519060200190929190505050905060008114156113585761110f60035461110a61110486670de0b6b3a76400006114c8565b8861154e565b6115dd565b6003819055507f8d1cced004452bd270777a8c670f9f7e7c4fdde56f2db331fe289d39dc2624ad611140838d6115dd565b60405180806020018381526020018281038252601e8152602001807f7472616e73666572696e6720746f207363686f6f6c20636f6e747261637400008152506020019250505060405180910390a1611198828c6115dd565b6005600082825401925050819055508673ffffffffffffffffffffffffffffffffffffffff1663a9059cbb6000809054906101000a900473ffffffffffffffffffffffffffffffffffffffff166111ef858f6115dd565b6040518363ffffffff1660e01b8152600401808373ffffffffffffffffffffffffffffffffffffffff1673ffffffffffffffffffffffffffffffffffffffff16815260200182815260200192505050602060405180830381600087803b15801561125857600080fd5b505af115801561126c573d6000803e3d6000fd5b505050506040513d602081101561128257600080fd5b8101908080519060200190929190505050508673ffffffffffffffffffffffffffffffffffffffff1663a9059cbb338d6040518363ffffffff1660e01b8152600401808373ffffffffffffffffffffffffffffffffffffffff1673ffffffffffffffffffffffffffffffffffffffff16815260200182815260200192505050602060405180830381600087803b15801561131b57600080fd5b505af115801561132f573d6000803e3d6000fd5b505050506040513d602081101561134557600080fd5b8101908080519060200190929190505050505b7f8d1cced004452bd270777a8c670f9f7e7c4fdde56f2db331fe289d39dc2624ad816040518080602001838152602001828103825260248152602001806116ef602491396040019250505060405180910390a160019750505050505050505b9392505050565b6000809054906101000a900473ffffffffffffffffffffffffffffffffffffffff1681565b60055481565b6000600554905090565b60008082905060008173ffffffffffffffffffffffffffffffffffffffff1663bd6d894d6040518163ffffffff1660e01b8152600401602060405180830381600087803b15801561144357600080fd5b505af1158015611457573d6000803e3d6000fd5b505050506040513d602081101561146d57600080fd5b8101908080519060200190929190505050905060006114bb6114b56003546114b06114a260035461149d8b6106dd565b6114c8565b671bc16d674ec8000061154e565b611666565b836114c8565b9050809350505050919050565b6000808314156114db5760009050611548565b60008284029050828482816114ec57fe5b0414611543576040517f08c379a00000000000000000000000000000000000000000000000000000000081526004018080602001828103825260218152602001806117136021913960400191505060405180910390fd5b809150505b92915050565b60008082116115c5576040517f08c379a000000000000000000000000000000000000000000000000000000000815260040180806020018281038252601a8152602001807f536166654d6174683a206469766973696f6e206279207a65726f00000000000081525060200191505060405180910390fd5b60008284816115d057fe5b0490508091505092915050565b600082821115611655576040517f08c379a000000000000000000000000000000000000000000000000000000000815260040180806020018281038252601e8152602001807f536166654d6174683a207375627472616374696f6e206f766572666c6f77000081525060200191505060405180910390fd5b600082840390508091505092915050565b6000808284019050838110156116e4576040517f08c379a000000000000000000000000000000000000000000000000000000000815260040180806020018281038252601b8152602001807f536166654d6174683a206164646974696f6e206f766572666c6f77000000000081525060200191505060405180910390fd5b809150509291505056fe49662074686973206973206e6f7420302c2074686572652077617320616e206572726f72536166654d6174683a206d756c7469706c69636174696f6e206f766572666c6f775468657265206973206e6f7420656e6f75676820666f7220746865207769746864726177616c2ea265627a7a72315820bdd032eb95a21b86b2c88a995299fa2f2daff8c8f15624d37c8a9233103b7abc64736f6c63430005100032",
  "source": "pragma solidity ^0.5.12;\n\ninterface Erc20 {\n    function approve(address, uint256) external returns (bool);\n\n    function transfer(address, uint256) external returns (bool);\n\n    function balanceOf(address) external view returns (uint256 balance);\n}\n\n\ninterface CErc20 {\n    function mint(uint256) external returns (uint256);\n\n    function balanceOfUnderlying(address) external returns (uint256);\n\n    function exchangeRateCurrent() external returns (uint256);\n\n    function supplyRatePerBlock() external returns (uint256);\n\n    function redeem(uint) external returns (uint);\n\n    function redeemUnderlying(uint) external returns (uint);\n}\n\ncontract User {\n    event MyLog(string, uint256);\n    event InsufficientBalance(string);\n\n    address payable public schoolContract;\n    address public owner;\n    string public name;\n\n    uint256 public cTokenBalance;\n    uint256 public avgExchangeRate;\n    uint256 public schoolContributions;\n\n    constructor(address payable _schoolContract, string memory _name) public {\n      name = _name;\n      owner = msg.sender;\n      schoolContract = _schoolContract;\n      cTokenBalance = 0;\n      schoolContributions = 0;\n    }\n\n    function add(uint256 a, uint256 b) internal pure returns (uint256) {\n        uint256 c = a + b;\n        require(c >= a, \"SafeMath: addition overflow\");\n\n        return c;\n    }\n\n    function sub(uint256 a, uint256 b) internal pure returns (uint256) {\n        require(b <= a, \"SafeMath: subtraction overflow\");\n        uint256 c = a - b;\n\n        return c;\n    }\n\n    function mul(uint256 a, uint256 b) internal pure returns (uint256) {\n        if (a == 0) {\n            return 0;\n        }\n\n        uint256 c = a * b;\n        require(c / a == b, \"SafeMath: multiplication overflow\");\n\n        return c;\n    }\n\n    function div(uint256 a, uint256 b) internal pure returns (uint256) {\n        require(b > 0, \"SafeMath: division by zero\");\n        uint256 c = a / b;\n\n        return c;\n    }\n\n\n\n    // supplyErc20ToCompound\n    function deposit(\n        address _erc20Contract,\n        address _cErc20Contract,\n        uint256 _numTokensToSupply\n    ) public returns (uint) {\n        // Create a reference to the underlying asset contract, like DAI.\n        Erc20 underlying = Erc20(_erc20Contract);\n\n        // Create a reference to the corresponding cToken contract, like cDAI\n        CErc20 cToken = CErc20(_cErc20Contract);\n        uint exchangeRateMantissa = cToken.exchangeRateCurrent();\n\n        // Approve transfer on the ERC20 contract\n        underlying.approve(_cErc20Contract, _numTokensToSupply);\n\n        // Mint cTokens\n        uint mintResult = cToken.mint(_numTokensToSupply);\n\n        // If deposit is successful, add number of supplied cTokens to running cToken balance\n        if (mintResult == 0) {\n            uint256 minted = div(mul(_numTokensToSupply, 1e18), exchangeRateMantissa);\n            uint256 cTokenBalanceOld = cTokenBalance;\n            cTokenBalance = add(cTokenBalance, minted);//+= _numTokensToSupply * 1e18 / exchangeRateMantissa;\n            avgExchangeRate = div(add(mul(avgExchangeRate, cTokenBalanceOld), mul(exchangeRateMantissa, minted)), cTokenBalance);\n        }\n\n        return mintResult;\n    }\n\n\n    function withdraw(\n        uint256 amount,\n        address _erc20Contract,\n        address _cErc20Contract\n    ) public returns (bool) {\n        // Create a reference to the corresponding cToken contract, like cDAI\n        Erc20 underlying = Erc20(_erc20Contract);\n        CErc20 cToken = CErc20(_cErc20Contract);\n        uint256 exchangeRateMantissa = cToken.exchangeRateCurrent();\n\n        // Calculate the current interest rate\n        uint256 interest_rate = interestRate(_cErc20Contract);\n\n\n        // Calculating requested amount without interest\n        uint256 amountWithoutInterest = div(mul(amount, 1e18), add(1e18, div(interest_rate, 2))); //amount * 100/(100 + interest_rate/2);\n        uint256 totalWithdraw = div(mul(amountWithoutInterest, add(1e18, interest_rate)), 1e18); //(amountWithoutInterest*(100 + interest_rate))/100;\n\n        // Ensure the user has enough supplied to compound to withdraw requested amount\n        if (!checkHasEnough(totalWithdraw, _cErc20Contract)) {\n            emit InsufficientBalance(\"There is not enough for the withdrawal.\");\n            return false;\n        }\n\n        // // Redeem the amount with interest\n        uint256 redeemResult = cToken.redeemUnderlying(totalWithdraw);\n\n        if (redeemResult == 0) {\n            // If redeem is successful, decrement our cTokenBalance by the amount in cToken withdrawn\n            cTokenBalance = sub(cTokenBalance, div(mul(amountWithoutInterest, 1e18), exchangeRateMantissa));     // -= amountWithoutInterest * 1e18 /exchangeRateMantissa;\n            // Transfer half of garnered interest to the school\n            emit MyLog(\"transfering to school contract\", sub(totalWithdraw, amount));\n            schoolContributions += sub(totalWithdraw, amount);\n            underlying.transfer(schoolContract, sub(totalWithdraw, amount));\n            underlying.transfer(msg.sender, amount);\n        }\n\n        // Error codes are listed here:\n        // https://compound.finance/developers/ctokens#ctoken-error-codes\n        emit MyLog(\"If this is not 0, there was an error\", redeemResult);\n\n        return true;\n    }\n\n\n    // Ensures the user has enough deposited to withdraw amount\n    function checkHasEnough(uint256 amount, address _cErc20Contract) public returns (bool) {\n      CErc20 cToken = CErc20(_cErc20Contract);\n      emit MyLog(\"amount = \", amount);\n      emit MyLog(\"balanceOfUnderlying\", cToken.balanceOfUnderlying(address(this)));\n      return amount <= cToken.balanceOfUnderlying(address(this));\n    }\n\n    // Calculate current average interest rate\n    function interestRate(address _cErc20Contract) public returns (uint256) {\n      if (cTokenBalance == 0) {\n          return 0;\n      }\n\n      CErc20 cToken = CErc20(_cErc20Contract);\n      uint256 curBalance = cToken.balanceOfUnderlying(address(this));\n      uint256 avgBalance = div(mul(cTokenBalance, avgExchangeRate), 1e18);\n\n      emit MyLog(\"curBalance\", curBalance);\n      emit MyLog(\"avgBalance\", avgBalance);\n      emit MyLog(\"curBalance - avgBalance\", curBalance - avgBalance);\n\n      if (curBalance < avgBalance) {\n          emit MyLog(\"interest rate\", 0);\n          return 0;\n      }\n\n      return div(mul(1e18, sub(curBalance, avgBalance)), avgBalance); //100 * (currentcTokenBalance - cTokenBalance) / cTokenBalance;\n\n    }\n\n\n    function getBalance(address _cErc20Contract) public returns (uint) {\n        CErc20 cToken = CErc20(_cErc20Contract);\n        uint exchangeRateMantissa = cToken.exchangeRateCurrent();\n        uint bal =  mul(add(cTokenBalance, div(mul(cTokenBalance, interestRate(_cErc20Contract)), 2e18)), exchangeRateMantissa); //(cTokenBalance + (cTokenBalance * interestRate(_cErc20Contract))/200) * exchangeRateMantissa;\n        return bal;\n    }\n\n    function getContribution() public view returns (uint256) {\n      return schoolContributions;\n    }\n\n    function getName() public view returns (string memory) {\n        return name;\n    }\n\n    // This is needed to receive ETH when calling `redeemCEth`\n    function() external payable {}\n}\n",
  "sourcePath": "/Users/daryakaviani/banking/blockchain/contracts/User.sol",
  "compiler": {
    "name": "solc",
    "version": "0.5.16+commit.9c3226ce.Emscripten.clang"
  },
  "schemaVersion": "3.3.1",
  "updatedAt": "2020-12-05T03:01:33.244Z",
  "devdoc": {
    "methods": {}
  },
  "userdoc": {
    "methods": {}
  }
}