{
  "_format": "hh-sol-artifact-1",
  "contractName": "User",
  "sourceName": "contracts/User.sol",
  "abi": [
    {
      "inputs": [
        {
          "internalType": "address payable",
          "name": "_schoolContract",
          "type": "address"
        },
        {
          "internalType": "string",
          "name": "_name",
          "type": "string"
        },
        {
          "internalType": "bool",
          "name": "_community",
          "type": "bool"
        },
        {
          "internalType": "address payable",
          "name": "_owner",
          "type": "address"
        }
      ],
      "stateMutability": "nonpayable",
      "type": "constructor"
    },
    {
      "anonymous": false,
      "inputs": [
        {
          "indexed": false,
          "internalType": "string",
          "name": "",
          "type": "string"
        }
      ],
      "name": "InsufficientBalance",
      "type": "event"
    },
    {
      "anonymous": false,
      "inputs": [
        {
          "indexed": false,
          "internalType": "address",
          "name": "",
          "type": "address"
        },
        {
          "indexed": false,
          "internalType": "address",
          "name": "",
          "type": "address"
        },
        {
          "indexed": false,
          "internalType": "uint256",
          "name": "",
          "type": "uint256"
        }
      ],
      "name": "SendToSchool",
      "type": "event"
    },
    {
      "stateMutability": "payable",
      "type": "fallback"
    },
    {
      "inputs": [],
      "name": "community",
      "outputs": [
        {
          "internalType": "bool",
          "name": "",
          "type": "bool"
        }
      ],
      "stateMutability": "view",
      "type": "function"
    },
    {
      "inputs": [
        {
          "internalType": "address",
          "name": "_erc20Contract",
          "type": "address"
        },
        {
          "internalType": "address",
          "name": "_cErc20Contract",
          "type": "address"
        },
        {
          "internalType": "uint256",
          "name": "_numTokensToSupply",
          "type": "uint256"
        }
      ],
      "name": "deposit",
      "outputs": [
        {
          "internalType": "uint256",
          "name": "",
          "type": "uint256"
        }
      ],
      "stateMutability": "nonpayable",
      "type": "function"
    },
    {
      "inputs": [
        {
          "internalType": "address",
          "name": "_erc20Contract",
          "type": "address"
        }
      ],
      "name": "getBalance",
      "outputs": [
        {
          "internalType": "uint256",
          "name": "",
          "type": "uint256"
        }
      ],
      "stateMutability": "view",
      "type": "function"
    },
    {
      "inputs": [],
      "name": "name",
      "outputs": [
        {
          "internalType": "string",
          "name": "",
          "type": "string"
        }
      ],
      "stateMutability": "view",
      "type": "function"
    },
    {
      "inputs": [],
      "name": "owner",
      "outputs": [
        {
          "internalType": "address",
          "name": "",
          "type": "address"
        }
      ],
      "stateMutability": "view",
      "type": "function"
    },
    {
      "inputs": [],
      "name": "schoolContract",
      "outputs": [
        {
          "internalType": "address payable",
          "name": "",
          "type": "address"
        }
      ],
      "stateMutability": "view",
      "type": "function"
    },
    {
      "inputs": [
        {
          "internalType": "address",
          "name": "",
          "type": "address"
        }
      ],
      "name": "schoolContributions",
      "outputs": [
        {
          "internalType": "uint256",
          "name": "",
          "type": "uint256"
        }
      ],
      "stateMutability": "view",
      "type": "function"
    },
    {
      "inputs": [
        {
          "internalType": "address",
          "name": "",
          "type": "address"
        }
      ],
      "name": "underlyingAmountDeposited",
      "outputs": [
        {
          "internalType": "uint256",
          "name": "",
          "type": "uint256"
        }
      ],
      "stateMutability": "view",
      "type": "function"
    },
    {
      "inputs": [
        {
          "internalType": "uint256",
          "name": "amount",
          "type": "uint256"
        },
        {
          "internalType": "address",
          "name": "_erc20Contract",
          "type": "address"
        },
        {
          "internalType": "address",
          "name": "_cErc20Contract",
          "type": "address"
        }
      ],
      "name": "withdraw",
      "outputs": [
        {
          "internalType": "uint256",
          "name": "",
          "type": "uint256"
        }
      ],
      "stateMutability": "nonpayable",
      "type": "function"
    },
    {
      "stateMutability": "payable",
      "type": "receive"
    }
  ],
  "bytecode": "0x60806040523480156200001157600080fd5b506040516200157138038062001571833981810160405260808110156200003757600080fd5b8151602083018051604051929492938301929190846401000000008211156200005f57600080fd5b9083019060208201858111156200007557600080fd5b82516401000000008111828201881017156200009057600080fd5b82525081516020918201929091019080838360005b83811015620000bf578181015183820152602001620000a5565b50505050905090810190601f168015620000ed5780820380516001836020036101000a031916815260200191505b506040908152602082810151929091015185519294509250620001169160029186019062000161565b506003805460ff191692151592909217909155600180546001600160a01b03199081166001600160a01b039384161790915560008054909116939091169290921790915550620001fd565b828054600181600116156101000203166002900490600052602060002090601f016020900481019282601f10620001a457805160ff1916838001178555620001d4565b82800160010185558215620001d4579182015b82811115620001d4578251825591602001919060010190620001b7565b50620001e2929150620001e6565b5090565b5b80821115620001e25760008155600101620001e7565b611364806200020d6000396000f3fe60806040526004361061009a5760003560e01c8063bca1c85d11610069578063dc1fb5a51161004e578063dc1fb5a51461023c578063f8b2cb4f14610265578063fc2b68e714610298576100a1565b8063bca1c85d146101f4578063c6dca23b14610209576100a1565b806306fdde03146100a35780638340f5491461012d5780638da5cb5b14610182578063b460af94146101b3576100a1565b366100a157005b005b3480156100af57600080fd5b506100b86102cb565b6040805160208082528351818301528351919283929083019185019080838360005b838110156100f25781810151838201526020016100da565b50505050905090810190601f16801561011f5780820380516001836020036101000a031916815260200191505b509250505060405180910390f35b34801561013957600080fd5b506101706004803603606081101561015057600080fd5b506001600160a01b03813581169160208101359091169060400135610356565b60408051918252519081900360200190f35b34801561018e57600080fd5b50610197610606565b604080516001600160a01b039092168252519081900360200190f35b3480156101bf57600080fd5b50610170600480360360608110156101d657600080fd5b508035906001600160a01b0360208201358116916040013516610615565b34801561020057600080fd5b50610197610d66565b34801561021557600080fd5b506101706004803603602081101561022c57600080fd5b50356001600160a01b0316610d75565b34801561024857600080fd5b50610251610d87565b604080519115158252519081900360200190f35b34801561027157600080fd5b506101706004803603602081101561028857600080fd5b50356001600160a01b0316610d90565b3480156102a457600080fd5b50610170600480360360208110156102bb57600080fd5b50356001600160a01b0316610e0e565b6002805460408051602060018416156101000260001901909316849004601f8101849004840282018401909252818152929183018282801561034e5780601f106103235761010080835404028352916020019161034e565b820191906000526020600020905b81548152906001019060200180831161033157829003601f168201915b505050505081565b6001546000906001600160a01b0316331461037057600080fd5b604080516323b872dd60e01b8152336004820152306024820152604481018490529051859185916001600160a01b038416916323b872dd9160648083019260209291908290030181600087803b1580156103c957600080fd5b505af11580156103dd573d6000803e3d6000fd5b505050506040513d60208110156103f357600080fd5b50516104305760405162461bcd60e51b81526004018080602001828103825260388152602001806111b06038913960400191505060405180910390fd5b816001600160a01b031663095ea7b386866040518363ffffffff1660e01b815260040180836001600160a01b0316815260200182815260200192505050602060405180830381600087803b15801561048757600080fd5b505af115801561049b573d6000803e3d6000fd5b505050506040513d60208110156104b157600080fd5b50506040805163140e25ad60e31b81526004810186905290516000916001600160a01b0384169163a0712d689160248082019260209290919082900301818787803b1580156104ff57600080fd5b505af1158015610513573d6000803e3d6000fd5b505050506040513d602081101561052957600080fd5b50519050801561056a5760405162461bcd60e51b81526004018080602001828103825260278152602001806111896027913960400191505060405180910390fd5b6001600160a01b038316600090815260046020526040812054819061058f9088610e20565b909250905060008260038111156105a257fe5b146105de5760405162461bcd60e51b81526004018080602001828103825260268152602001806112936026913960400191505060405180910390fd5b6001600160a01b03909416600090815260046020526040902093909355925050509392505050565b6001546001600160a01b031681565b6001546000906001600160a01b0316331461062f57600080fd5b60008060008060008061064061100a565b60408051633af9e66960e01b815230600482015290518b918b916000916001600160a01b03841691633af9e6699160248082019260209290919082900301818787803b15801561068f57600080fd5b505af11580156106a3573d6000803e3d6000fd5b505050506040513d60208110156106b957600080fd5b50519050808e1115610747577f7979dc87a8aa237e89a521cf8882b835cf9a757fda430f3a2d925e1ef6c5bf576040518080602001828103825260278152602001806113316027913960400191505060405180910390a160405162461bcd60e51b81526004018080602001828103825260328152602001806112346032913960400191505060405180910390fd5b816001600160a01b031663852a12e38f6040518263ffffffff1660e01b815260040180828152602001915050602060405180830381600087803b15801561078d57600080fd5b505af11580156107a1573d6000803e3d6000fd5b505050506040513d60208110156107b757600080fd5b5051156107f55760405162461bcd60e51b815260040180806020018281038252602d815260200180611266602d913960400191505060405180910390fd5b6107ff8e82610e49565b8552995060008a600381111561081157fe5b1461084d5760405162461bcd60e51b81526004018080602001828103825260378152602001806111206037913960400191505060405180910390fd5b6001600160a01b038316600090815260046020526040902054610871908290610efa565b909a50985060008a600381111561088457fe5b146108c05760405162461bcd60e51b81526004018080602001828103825260328152602001806111576032913960400191505060405180910390fd5b83516108cc908a610f1d565b6020860152995060008a60038111156108e157fe5b1461091d5760405162461bcd60e51b81526004018080602001828103825260378152602001806112b96037913960400191505060405180910390fd5b60035460ff16156109a05761093784602001516002610f85565b6040860152995060008a600381111561094c57fe5b146109885760405162461bcd60e51b815260040180806020018281038252603a8152602001806110e6603a913960400191505060405180910390fd5b604084015151670de0b6b3a7640000900497506109b4565b602084015151670de0b6b3a7640000900497505b6109be8e89610efa565b909a50965060008a60038111156109d157fe5b14610a0d5760405162461bcd60e51b815260040180806020018281038252603a815260200180611050603a913960400191505060405180910390fd5b600080546040805163a9059cbb60e01b81526001600160a01b039283166004820152602481018c905290519186169263a9059cbb926044808401936020939083900390910190829087803b158015610a6457600080fd5b505af1158015610a78573d6000803e3d6000fd5b505050506040513d6020811015610a8e57600080fd5b5051610acb5760405162461bcd60e51b81526004018080602001828103825260228152602001806110c46022913960400191505060405180910390fd5b600054604080516001600160a01b03928316815291851660208301528181018a9052517f1321aa8a58141f9f78267b6b326e2e35fcca705b7476dd386135ea8fc091f10e9181900360600190a16040805163a9059cbb60e01b81523360048201526024810189905290516001600160a01b0385169163a9059cbb9160448083019260209291908290030181600087803b158015610b6757600080fd5b505af1158015610b7b573d6000803e3d6000fd5b505050506040513d6020811015610b9157600080fd5b5051610be4576040805162461bcd60e51b815260206004820181905260248201527f4572726f72207472616e7366657272696e672066756e647320746f2075736572604482015290519081900360640190fd5b60035460ff1615610c4e57610bfa886002610fa0565b909a50955060008a6003811115610c0d57fe5b14610c495760405162461bcd60e51b815260040180806020018281038252603a81526020018061108a603a913960400191505060405180910390fd5b610c52565b8795505b610c5c8e87610efa565b909a50945060008a6003811115610c6f57fe5b14610cab5760405162461bcd60e51b815260040180806020018281038252604c8152602001806111e8604c913960600191505060405180910390fd5b6001600160a01b038316600090815260046020526040902054610cce9086610efa565b6001600160a01b038516600090815260046020526040812091909155909a508a6003811115610cf957fe5b14610d355760405162461bcd60e51b81526004018080602001828103825260418152602001806112f06041913960600191505060405180910390fd5b50506001600160a01b0316600090815260056020526040812080549096019095555092955050505050509392505050565b6000546001600160a01b031681565b60056020526000908152604090205481565b60035460ff1681565b604080516370a0823160e01b8152336004820152905160009183916001600160a01b038316916370a08231916024808301926020929190829003018186803b158015610ddb57600080fd5b505afa158015610def573d6000803e3d6000fd5b505050506040513d6020811015610e0557600080fd5b50519392505050565b60046020526000908152604090205481565b600080838301848110610e3857600092509050610e42565b6002600092509250505b9250929050565b6000610e5361103c565b600080610e6886670de0b6b3a7640000610fa0565b90925090506000826003811115610e7b57fe5b14610e9a57506040805160208101909152600081529092509050610e42565b600080610ea78388610fdf565b90925090506000826003811115610eba57fe5b14610edd5781604051806020016040528060008152509550955050505050610e42565b604080516020810190915290815260009890975095505050505050565b600080838311610f11575060009050818303610e42565b50600390506000610e42565b6000610f2761103c565b600080610f38866000015186610fa0565b90925090506000826003811115610f4b57fe5b14610f6a57506040805160208101909152600081529092509050610e42565b60408051602081019091529081526000969095509350505050565b6000610f8f61103c565b600080610f38866000015186610fdf565b60008083610fb357506000905080610e42565b83830283858281610fc057fe5b0414610fd457600260009250925050610e42565b600092509050610e42565b60008082610ff35750600190506000610e42565b6000838581610ffe57fe5b04915091509250929050565b604051806060016040528061101d61103c565b815260200161102a61103c565b815260200161103761103c565b905290565b604051806020016040528060008152509056fe41726974686d65746963204661696c757265207768656e2063616c63756c6174696e6720616d6f756e7420746f2073656e6420746f207573657241726974686d65746963204661696c757265207768656e2063616c63756c6174696e6720746f74616c496e74657265737457697468647261776e4572726f72207472616e7366657272696e672066756e647320746f207363686f6f6c4578706f6e656e7469616c204661696c757265207768656e2063616c63756c6174696e672068616c6657697468647261776e496e7465726573744578706f6e656e7469616c204661696c757265207768656e2063616c63756c6174696e67206672616374696f6e546f576974686472617741726974686d65746963204661696c757265207768656e2063616c63756c6174696e6720696e7465726573744561726e65644661696c757265207768656e20617474656d7074696e6720746f206d696e742063546f6b656e734661696c7572653a20436f756c64206e6f74207472616e7366657220746f6b656e732066726f6d207573657220746f20636f6e747261637441726974686d65746963204661696c757265207768656e2063616c63756c6174696e67206e65772076616c756520666f7220616d6f756e7457697468647261776e46726f6d4465706f7369744661696c7572653a20417474656d7074696e6720746f207769746864726177206d6f7265207468616e20796f75206f776e2e4661696c656420746f2072656465656d2063546f6b656e7320666f7220756e6465726c79696e6720746f6b656e6572726f72207570646174696e6720696e697469616c2062616c616e6365206f6620757365724578706f6e656e7469616c204661696c757265207768656e2063616c63756c6174696e6720696e746572657374546f576974686472617741726974686d65746963204661696c757265207768656e2063616c63756c6174696e67206e6e6577556e6465726c79696e67416d6f756e744465706f73697465645468657265206973206e6f7420656e6f75676820666f7220746865207769746864726177616c2ea164736f6c634300060c000a",
  "linkReferences": {},
  "deployedLinkReferences": {}
}