{
  "contractName": "ERC20",
  "abi": [
    {
      "constant": true,
      "inputs": [
        {
          "internalType": "address",
          "name": "",
          "type": "address"
        },
        {
          "internalType": "uint256",
          "name": "",
          "type": "uint256"
        }
      ],
      "name": "approve",
      "outputs": [
        {
          "internalType": "bool",
          "name": "",
          "type": "bool"
        }
      ],
      "payable": false,
      "stateMutability": "pure",
      "type": "function"
    },
    {
      "constant": true,
      "inputs": [
        {
          "internalType": "address",
          "name": "",
          "type": "address"
        },
        {
          "internalType": "uint256",
          "name": "",
          "type": "uint256"
        }
      ],
      "name": "transfer",
      "outputs": [
        {
          "internalType": "bool",
          "name": "",
          "type": "bool"
        }
      ],
      "payable": false,
      "stateMutability": "pure",
      "type": "function"
    }
  ],
  "bytecode": "0x608060405234801561001057600080fd5b50610154806100206000396000f3fe608060405234801561001057600080fd5b50600436106100365760003560e01c8063095ea7b31461003b578063a9059cbb146100a1575b600080fd5b6100876004803603604081101561005157600080fd5b81019080803573ffffffffffffffffffffffffffffffffffffffff16906020019092919080359060200190929190505050610107565b604051808215151515815260200191505060405180910390f35b6100ed600480360360408110156100b757600080fd5b81019080803573ffffffffffffffffffffffffffffffffffffffff16906020019092919080359060200190929190505050610113565b604051808215151515815260200191505060405180910390f35b60006001905092915050565b6000600190509291505056fea265627a7a723158202b546c3192d54ae7985854961ce326c862d4dcd908a93707ffa862215f056b0064736f6c63430005100032",
  "source": "pragma solidity ^0.5.12;\n\n// Mock as needed for unit testing\ncontract ERC20 {  \n    function approve(address, uint256) external pure returns (bool) {\n      return true;\n    }\n\n    function transfer(address, uint256) external pure returns (bool) {\n      return true;\n    }\n}\n",
  "sourcePath": "/home/hayek/proj/consulting-unicef/contracts/MockERC20.sol",
  "compiler": {
    "name": "solc",
    "version": "0.5.16+commit.9c3226ce.Emscripten.clang"
  },
  "schemaVersion": "3.0.23",
  "updatedAt": "2020-10-15T20:20:42.241Z",
  "devdoc": {
    "methods": {}
  },
  "userdoc": {
    "methods": {}
  }
}