{
  "contractName": "MockCERC20",
  "abi": [
    {
      "constant": true,
      "inputs": [
        {
          "internalType": "uint256",
          "name": "_amount",
          "type": "uint256"
        }
      ],
      "name": "mint",
      "outputs": [
        {
          "internalType": "uint256",
          "name": "",
          "type": "uint256"
        }
      ],
      "payable": false,
      "stateMutability": "pure",
      "type": "function"
    },
    {
      "constant": true,
      "inputs": [
        {
          "internalType": "address",
          "name": "_address",
          "type": "address"
        }
      ],
      "name": "balanceOfUnderlying",
      "outputs": [
        {
          "internalType": "uint256",
          "name": "",
          "type": "uint256"
        }
      ],
      "payable": false,
      "stateMutability": "pure",
      "type": "function"
    },
    {
      "constant": true,
      "inputs": [],
      "name": "exchangeRateCurrent",
      "outputs": [
        {
          "internalType": "uint256",
          "name": "",
          "type": "uint256"
        }
      ],
      "payable": false,
      "stateMutability": "pure",
      "type": "function"
    },
    {
      "constant": true,
      "inputs": [],
      "name": "supplyRatePerBlock",
      "outputs": [
        {
          "internalType": "uint256",
          "name": "",
          "type": "uint256"
        }
      ],
      "payable": false,
      "stateMutability": "pure",
      "type": "function"
    },
    {
      "constant": true,
      "inputs": [
        {
          "internalType": "uint256",
          "name": "_amount",
          "type": "uint256"
        }
      ],
      "name": "redeem",
      "outputs": [
        {
          "internalType": "uint256",
          "name": "",
          "type": "uint256"
        }
      ],
      "payable": false,
      "stateMutability": "pure",
      "type": "function"
    },
    {
      "constant": true,
      "inputs": [
        {
          "internalType": "uint256",
          "name": "_amount",
          "type": "uint256"
        }
      ],
      "name": "redeemUnderlying",
      "outputs": [
        {
          "internalType": "uint256",
          "name": "",
          "type": "uint256"
        }
      ],
      "payable": false,
      "stateMutability": "pure",
      "type": "function"
    }
  ],
  "bytecode": "0x608060405234801561001057600080fd5b5061022f806100206000396000f3fe608060405234801561001057600080fd5b50600436106100625760003560e01c80633af9e66914610067578063852a12e3146100bf578063a0712d6814610101578063ae9d70b014610143578063bd6d894d14610161578063db006a751461017f575b600080fd5b6100a96004803603602081101561007d57600080fd5b81019080803573ffffffffffffffffffffffffffffffffffffffff1690602001909291905050506101c1565b6040518082815260200191505060405180910390f35b6100eb600480360360208110156100d557600080fd5b81019080803590602001909291905050506101cb565b6040518082815260200191505060405180910390f35b61012d6004803603602081101561011757600080fd5b81019080803590602001909291905050506101d5565b6040518082815260200191505060405180910390f35b61014b6101df565b6040518082815260200191505060405180910390f35b6101696101e7565b6040518082815260200191505060405180910390f35b6101ab6004803603602081101561019557600080fd5b81019080803590602001909291905050506101f0565b6040518082815260200191505060405180910390f35b6000809050919050565b6000819050919050565b6000819050919050565b600080905090565b60006001905090565b600081905091905056fea265627a7a72315820c06a9f2315aa08f69e81880924cf2bd650a695cd4ae6b66741c4087f10bc192564736f6c63430005100032",
  "source": "pragma solidity ^0.5.12;\n\n// Mock as needed for unit testing\ncontract MockCERC20 {  \n    function mint(uint256 _amount) external pure returns (uint256) {\n      return _amount;\n    }\n\n    function balanceOfUnderlying(address _address) external pure returns (uint256) {\n      return 0;\n    }\n\n    function exchangeRateCurrent() external pure returns (uint256) {\n      return 1;\n    }\n\n    function supplyRatePerBlock() external pure returns (uint256) {\n      return 0;\n    }\n\n    function redeem(uint _amount) external pure returns (uint) {\n      return _amount;\n    }\n\n    function redeemUnderlying(uint _amount) external pure returns (uint) {\n      return _amount;\n    }\n}\n",
  "sourcePath": "/home/hayek/proj/consulting-unicef/contracts/MockCERC20.sol",
  "compiler": {
    "name": "solc",
    "version": "0.5.16+commit.9c3226ce.Emscripten.clang"
  },
  "schemaVersion": "3.0.23",
  "updatedAt": "2020-10-15T20:56:27.226Z",
  "devdoc": {
    "methods": {}
  },
  "userdoc": {
    "methods": {}
  }
}