{
  "contractName": "User",
  "abi": [
    {
      "inputs": [
        {
          "internalType": "address payable",
          "name": "_schoolContract",
          "type": "address"
        },
        {
          "internalType": "string",
          "name": "_name",
          "type": "string"
        }
      ],
      "payable": false,
      "stateMutability": "nonpayable",
      "type": "constructor"
    },
    {
      "anonymous": false,
      "inputs": [
        {
          "indexed": false,
          "internalType": "string",
          "name": "",
          "type": "string"
        }
      ],
      "name": "InsufficientBalance",
      "type": "event"
    },
    {
      "anonymous": false,
      "inputs": [
        {
          "indexed": false,
          "internalType": "string",
          "name": "",
          "type": "string"
        },
        {
          "indexed": false,
          "internalType": "uint256",
          "name": "",
          "type": "uint256"
        }
      ],
      "name": "MyLog",
      "type": "event"
    },
    {
      "payable": true,
      "stateMutability": "payable",
      "type": "fallback"
    },
    {
      "constant": true,
      "inputs": [],
      "name": "cTokenBalance",
      "outputs": [
        {
          "internalType": "uint256",
          "name": "",
          "type": "uint256"
        }
      ],
      "payable": false,
      "stateMutability": "view",
      "type": "function"
    },
    {
      "constant": false,
      "inputs": [
        {
          "internalType": "address",
          "name": "_erc20Contract",
          "type": "address"
        },
        {
          "internalType": "address",
          "name": "_cErc20Contract",
          "type": "address"
        },
        {
          "internalType": "uint256",
          "name": "_numTokensToSupply",
          "type": "uint256"
        }
      ],
      "name": "deposit",
      "outputs": [
        {
          "internalType": "uint256",
          "name": "",
          "type": "uint256"
        }
      ],
      "payable": false,
      "stateMutability": "nonpayable",
      "type": "function"
    },
    {
      "constant": false,
      "inputs": [
        {
          "internalType": "uint256",
          "name": "amount",
          "type": "uint256"
        },
        {
          "internalType": "address",
          "name": "_cErc20Contract",
          "type": "address"
        }
      ],
      "name": "withdraw",
      "outputs": [
        {
          "internalType": "bool",
          "name": "",
          "type": "bool"
        }
      ],
      "payable": false,
      "stateMutability": "nonpayable",
      "type": "function"
    }
  ],
  "bytecode": "0x608060405234801561001057600080fd5b50604051610b7a380380610b7a8339818101604052604081101561003357600080fd5b81019080805190602001909291908051604051939291908464010000000082111561005d57600080fd5b8382019150602082018581111561007357600080fd5b825186600182028301116401000000008211171561009057600080fd5b8083526020830192505050908051906020019080838360005b838110156100c45780820151818401526020810190506100a9565b50505050905090810190601f1680156100f15780820380516001836020036101000a031916815260200191505b50604052505050806002908051906020019061010e929190610197565b5033600160006101000a81548173ffffffffffffffffffffffffffffffffffffffff021916908373ffffffffffffffffffffffffffffffffffffffff160217905550816000806101000a81548173ffffffffffffffffffffffffffffffffffffffff021916908373ffffffffffffffffffffffffffffffffffffffff160217905550505061023c565b828054600181600116156101000203166002900490600052602060002090601f016020900481019282601f106101d857805160ff1916838001178555610206565b82800160010185558215610206579182015b828111156102055782518255916020019190600101906101ea565b5b5090506102139190610217565b5090565b61023991905b8082111561023557600081600090555060010161021d565b5090565b90565b61092f8061024b6000396000f3fe6080604052600436106100335760003560e01c8062f714ce146100355780638340f549146100a8578063afe3bd8f14610137575b005b34801561004157600080fd5b5061008e6004803603604081101561005857600080fd5b8101908080359060200190929190803573ffffffffffffffffffffffffffffffffffffffff169060200190929190505050610162565b604051808215151515815260200191505060405180910390f35b3480156100b457600080fd5b50610121600480360360608110156100cb57600080fd5b81019080803573ffffffffffffffffffffffffffffffffffffffff169060200190929190803573ffffffffffffffffffffffffffffffffffffffff16906020019092919080359060200190929190505050610413565b6040518082815260200191505060405180910390f35b34801561014357600080fd5b5061014c61062b565b6040518082815260200191505060405180910390f35b60008082905060008173ffffffffffffffffffffffffffffffffffffffff1663bd6d894d6040518163ffffffff1660e01b8152600401602060405180830381600087803b1580156101b257600080fd5b505af11580156101c6573d6000803e3d6000fd5b505050506040513d60208110156101dc57600080fd5b8101908080519060200190929190505050905060006101fa85610631565b905060006002828161020857fe5b04600101878161021457fe5b049050610226826001018202876107c1565b610282577f7979dc87a8aa237e89a521cf8882b835cf9a757fda430f3a2d925e1ef6c5bf576040518080602001828103825260278152602001806108d46027913960400191505060405180910390a1600094505050505061040d565b60008473ffffffffffffffffffffffffffffffffffffffff1663852a12e38460010184026040518263ffffffff1660e01b815260040180828152602001915050602060405180830381600087803b1580156102dc57600080fd5b505af11580156102f0573d6000803e3d6000fd5b505050506040513d602081101561030657600080fd5b8101908080519060200190929190505050905060008114156103b05783828161032b57fe5b046003600082825403925050819055506000809054906101000a900473ffffffffffffffffffffffffffffffffffffffff1673ffffffffffffffffffffffffffffffffffffffff166108fc60028585028161038257fe5b049081150290604051600060405180830381858888f193505050501580156103ae573d6000803e3d6000fd5b505b7f8d1cced004452bd270777a8c670f9f7e7c4fdde56f2db331fe289d39dc2624ad816040518080602001838152602001828103825260248152602001806108b0602491396040019250505060405180910390a16001955050505050505b92915050565b600080849050600084905060008173ffffffffffffffffffffffffffffffffffffffff1663bd6d894d6040518163ffffffff1660e01b8152600401602060405180830381600087803b15801561046857600080fd5b505af115801561047c573d6000803e3d6000fd5b505050506040513d602081101561049257600080fd5b810190808051906020019092919050505090508273ffffffffffffffffffffffffffffffffffffffff1663095ea7b387876040518363ffffffff1660e01b8152600401808373ffffffffffffffffffffffffffffffffffffffff1673ffffffffffffffffffffffffffffffffffffffff16815260200182815260200192505050602060405180830381600087803b15801561052c57600080fd5b505af1158015610540573d6000803e3d6000fd5b505050506040513d602081101561055657600080fd5b81019080805190602001909291905050505060008273ffffffffffffffffffffffffffffffffffffffff1663a0712d68876040518263ffffffff1660e01b815260040180828152602001915050602060405180830381600087803b1580156105bd57600080fd5b505af11580156105d1573d6000803e3d6000fd5b505050506040513d60208110156105e757600080fd5b81019080805190602001909291905050509050600081141561061d5781868161060c57fe5b046003600082825401925050819055505b809450505050509392505050565b60035481565b60008082905060008173ffffffffffffffffffffffffffffffffffffffff1663bd6d894d6040518163ffffffff1660e01b8152600401602060405180830381600087803b15801561068157600080fd5b505af1158015610695573d6000803e3d6000fd5b505050506040513d60208110156106ab57600080fd5b810190808051906020019092919050505090506000818373ffffffffffffffffffffffffffffffffffffffff16633af9e669600160009054906101000a900473ffffffffffffffffffffffffffffffffffffffff166040518263ffffffff1660e01b8152600401808273ffffffffffffffffffffffffffffffffffffffff1673ffffffffffffffffffffffffffffffffffffffff168152602001915050602060405180830381600087803b15801561076257600080fd5b505af1158015610776573d6000803e3d6000fd5b505050506040513d602081101561078c57600080fd5b8101908080519060200190929190505050816107a457fe5b0490506003546003548203816107b657fe5b049350505050919050565b6000808290508073ffffffffffffffffffffffffffffffffffffffff16633af9e669600160009054906101000a900473ffffffffffffffffffffffffffffffffffffffff166040518263ffffffff1660e01b8152600401808273ffffffffffffffffffffffffffffffffffffffff1673ffffffffffffffffffffffffffffffffffffffff168152602001915050602060405180830381600087803b15801561086857600080fd5b505af115801561087c573d6000803e3d6000fd5b505050506040513d602081101561089257600080fd5b81019080805190602001909291905050508411159150509291505056fe49662074686973206973206e6f7420302c2074686572652077617320616e206572726f725468657265206973206e6f7420656e6f75676820666f7220746865207769746864726177616c2ea265627a7a723158207cb66bd8417ca3acd6c8a15a7797fc7b33fdf66a7881e814f21b7ec4cba6dafb64736f6c63430005100032",
  "source": "pragma solidity ^0.5.12;\n\n\ninterface Erc20 {\n    function approve(address, uint256) external returns (bool);\n\n    function transfer(address, uint256) external returns (bool);\n}\n\n\ninterface CErc20 {\n    function mint(uint256) external returns (uint256);\n\n    function balanceOfUnderlying(address) external returns (uint256);\n\n    function exchangeRateCurrent() external returns (uint256);\n\n    function supplyRatePerBlock() external returns (uint256);\n\n    function redeem(uint) external returns (uint);\n\n    function redeemUnderlying(uint) external returns (uint);\n}\n\ncontract User {\n    event MyLog(string, uint256);\n    event InsufficientBalance(string);\n\n    address payable schoolContract;\n    address owner;\n    string name;\n\n    uint public cTokenBalance;\n\n    constructor(address payable _schoolContract, string memory _name) public {\n      name = _name;\n      owner = msg.sender;\n      schoolContract = _schoolContract;\n    }\n\n    // supplyErc20ToCompound\n    function deposit(\n        address _erc20Contract,\n        address _cErc20Contract,\n        uint256 _numTokensToSupply\n    ) public returns (uint) {\n        // Create a reference to the underlying asset contract, like DAI.\n        Erc20 underlying = Erc20(_erc20Contract);\n\n        // Create a reference to the corresponding cToken contract, like cDAI\n        CErc20 cToken = CErc20(_cErc20Contract);\n        uint exchangeRateMantissa = cToken.exchangeRateCurrent();\n\n        // Approve transfer on the ERC20 contract\n        underlying.approve(_cErc20Contract, _numTokensToSupply);\n\n        // Mint cTokens\n        uint mintResult = cToken.mint(_numTokensToSupply);\n\n        // If deposit is successful, add number of supplied cTokens to running cToken balance\n        if (mintResult == 0) {\n            cTokenBalance += _numTokensToSupply / exchangeRateMantissa;\n        }\n        return mintResult;\n    }\n\n    function withdraw(\n        uint256 amount,\n        address _cErc20Contract\n    ) public returns (bool) {\n        // Create a reference to the corresponding cToken contract, like cDAI\n        CErc20 cToken = CErc20(_cErc20Contract);\n        uint exchangeRateMantissa = cToken.exchangeRateCurrent();\n\n\n        // Calculate the current interest rate\n        uint interestRate = interestRate(_cErc20Contract);\n\n        // Calculating requested amount without interest\n        uint256 amountWithoutInterest = amount/(1 + interestRate/2);\n\n        // Ensure the user has enough supplied to compound to withdraw requested amount\n        if (!checkHasEnough(amountWithoutInterest*(1 + interestRate), _cErc20Contract)) {\n          emit InsufficientBalance(\"There is not enough for the withdrawal.\");\n          return false;\n        }\n\n        // Redeem the amount with interest\n        uint256 redeemResult = cToken.redeemUnderlying(amountWithoutInterest*(1 + interestRate));\n\n\n        if (redeemResult == 0) {\n            // If redeem is successful, decrement our cTokenBalance by the amount in cToken withdrawn\n            cTokenBalance -= amountWithoutInterest/exchangeRateMantissa;\n            // Transfer half of garnered interest to the school\n            schoolContract.transfer((amountWithoutInterest*interestRate)/2);\n\n        }\n\n        // Error codes are listed here:\n        // https://compound.finance/developers/ctokens#ctoken-error-codes\n        emit MyLog(\"If this is not 0, there was an error\", redeemResult);\n\n        return true;\n    }\n\n    // Ensures the user has enough deposited to withdraw amount\n    function checkHasEnough(uint256 amount, address _cErc20Contract) private returns (bool) {\n      CErc20 cToken = CErc20(_cErc20Contract);\n      return amount <= cToken.balanceOfUnderlying(owner);\n    }\n\n    // Calculate current average interest rate\n    function interestRate(address _cErc20Contract) private returns (uint) {\n      CErc20 cToken = CErc20(_cErc20Contract);\n      uint exchangeRateMantissa = cToken.exchangeRateCurrent();\n      uint currentcTokenBalance = cToken.balanceOfUnderlying(owner) / exchangeRateMantissa;\n      return (currentcTokenBalance - cTokenBalance) / cTokenBalance;\n    }\n\n    // This is needed to receive ETH when calling `redeemCEth`\n    function() external payable {}\n}\n",
  "sourcePath": "/home/hayek/proj/consulting-unicef/contracts/User.sol",
  "compiler": {
    "name": "solc",
    "version": "0.5.16+commit.9c3226ce.Emscripten.clang"
  },
  "schemaVersion": "3.0.23",
  "updatedAt": "2020-10-15T20:56:27.250Z",
  "devdoc": {
    "methods": {}
  },
  "userdoc": {
    "methods": {}
  }
}